{
  "contractName": "StoryInteractionFactory",
  "abi": [
    {
      "inputs": [
        {
          "internalType": "string",
          "name": "_name",
          "type": "string"
        },
        {
          "internalType": "string",
          "name": "_symbol",
          "type": "string"
        },
        {
          "internalType": "address",
          "name": "_hostAddress",
          "type": "address"
        },
        {
          "internalType": "address",
          "name": "_cfaAddress",
          "type": "address"
        },
        {
          "internalType": "address",
          "name": "_hSpaceTokenAddress",
          "type": "address"
        },
        {
          "internalType": "address",
          "name": "_storyFactoryAddress",
          "type": "address"
        }
      ],
      "stateMutability": "nonpayable",
      "type": "constructor"
    },
    {
      "anonymous": false,
      "inputs": [
        {
          "indexed": true,
          "internalType": "address",
          "name": "owner",
          "type": "address"
        },
        {
          "indexed": true,
          "internalType": "address",
          "name": "approved",
          "type": "address"
        },
        {
          "indexed": true,
          "internalType": "uint256",
          "name": "tokenId",
          "type": "uint256"
        }
      ],
      "name": "Approval",
      "type": "event"
    },
    {
      "anonymous": false,
      "inputs": [
        {
          "indexed": true,
          "internalType": "address",
          "name": "owner",
          "type": "address"
        },
        {
          "indexed": true,
          "internalType": "address",
          "name": "operator",
          "type": "address"
        },
        {
          "indexed": false,
          "internalType": "bool",
          "name": "approved",
          "type": "bool"
        }
      ],
      "name": "ApprovalForAll",
      "type": "event"
    },
    {
      "anonymous": false,
      "inputs": [
        {
          "indexed": false,
          "internalType": "uint256",
          "name": "tokenId",
          "type": "uint256"
        },
        {
          "indexed": false,
          "internalType": "address",
          "name": "interactionCreator",
          "type": "address"
        },
        {
          "indexed": false,
          "internalType": "string",
          "name": "props",
          "type": "string"
        },
        {
          "indexed": false,
          "internalType": "uint256",
          "name": "storyTokenId",
          "type": "uint256"
        },
        {
          "indexed": false,
          "internalType": "bool",
          "name": "openStream",
          "type": "bool"
        }
      ],
      "name": "StoryInteractionCreated",
      "type": "event"
    },
    {
      "anonymous": false,
      "inputs": [
        {
          "indexed": true,
          "internalType": "address",
          "name": "from",
          "type": "address"
        },
        {
          "indexed": true,
          "internalType": "address",
          "name": "to",
          "type": "address"
        },
        {
          "indexed": true,
          "internalType": "uint256",
          "name": "tokenId",
          "type": "uint256"
        }
      ],
      "name": "Transfer",
      "type": "event"
    },
    {
      "inputs": [],
      "name": "activeStreamsCount",
      "outputs": [
        {
          "internalType": "uint8",
          "name": "",
          "type": "uint8"
        }
      ],
      "stateMutability": "view",
      "type": "function"
    },
    {
      "inputs": [
        {
          "internalType": "address",
          "name": "to",
          "type": "address"
        },
        {
          "internalType": "uint256",
          "name": "tokenId",
          "type": "uint256"
        }
      ],
      "name": "approve",
      "outputs": [],
      "stateMutability": "nonpayable",
      "type": "function"
    },
    {
      "inputs": [
        {
          "internalType": "address",
          "name": "owner",
          "type": "address"
        }
      ],
      "name": "balanceOf",
      "outputs": [
        {
          "internalType": "uint256",
          "name": "",
          "type": "uint256"
        }
      ],
      "stateMutability": "view",
      "type": "function"
    },
    {
      "inputs": [],
      "name": "baseURI",
      "outputs": [
        {
          "internalType": "string",
          "name": "",
          "type": "string"
        }
      ],
      "stateMutability": "view",
      "type": "function"
    },
    {
      "inputs": [
        {
          "internalType": "uint256",
          "name": "tokenId",
          "type": "uint256"
        }
      ],
      "name": "getApproved",
      "outputs": [
        {
          "internalType": "address",
          "name": "",
          "type": "address"
        }
      ],
      "stateMutability": "view",
      "type": "function"
    },
    {
      "inputs": [
        {
          "internalType": "address",
          "name": "owner",
          "type": "address"
        },
        {
          "internalType": "address",
          "name": "operator",
          "type": "address"
        }
      ],
      "name": "isApprovedForAll",
      "outputs": [
        {
          "internalType": "bool",
          "name": "",
          "type": "bool"
        }
      ],
      "stateMutability": "view",
      "type": "function"
    },
    {
      "inputs": [],
      "name": "name",
      "outputs": [
        {
          "internalType": "string",
          "name": "",
          "type": "string"
        }
      ],
      "stateMutability": "view",
      "type": "function"
    },
    {
      "inputs": [
        {
          "internalType": "uint256",
          "name": "tokenId",
          "type": "uint256"
        }
      ],
      "name": "ownerOf",
      "outputs": [
        {
          "internalType": "address",
          "name": "",
          "type": "address"
        }
      ],
      "stateMutability": "view",
      "type": "function"
    },
    {
      "inputs": [
        {
          "internalType": "address",
          "name": "from",
          "type": "address"
        },
        {
          "internalType": "address",
          "name": "to",
          "type": "address"
        },
        {
          "internalType": "uint256",
          "name": "tokenId",
          "type": "uint256"
        }
      ],
      "name": "safeTransferFrom",
      "outputs": [],
      "stateMutability": "nonpayable",
      "type": "function"
    },
    {
      "inputs": [
        {
          "internalType": "address",
          "name": "from",
          "type": "address"
        },
        {
          "internalType": "address",
          "name": "to",
          "type": "address"
        },
        {
          "internalType": "uint256",
          "name": "tokenId",
          "type": "uint256"
        },
        {
          "internalType": "bytes",
          "name": "_data",
          "type": "bytes"
        }
      ],
      "name": "safeTransferFrom",
      "outputs": [],
      "stateMutability": "nonpayable",
      "type": "function"
    },
    {
      "inputs": [
        {
          "internalType": "address",
          "name": "operator",
          "type": "address"
        },
        {
          "internalType": "bool",
          "name": "approved",
          "type": "bool"
        }
      ],
      "name": "setApprovalForAll",
      "outputs": [],
      "stateMutability": "nonpayable",
      "type": "function"
    },
    {
      "inputs": [
        {
          "internalType": "address",
          "name": "",
          "type": "address"
        }
      ],
      "name": "startedStream",
      "outputs": [
        {
          "internalType": "bool",
          "name": "",
          "type": "bool"
        }
      ],
      "stateMutability": "view",
      "type": "function"
    },
    {
      "inputs": [
        {
          "internalType": "uint256",
          "name": "",
          "type": "uint256"
        },
        {
          "internalType": "uint256",
          "name": "",
          "type": "uint256"
        }
      ],
      "name": "storyInteractions",
      "outputs": [
        {
          "internalType": "uint256",
          "name": "",
          "type": "uint256"
        }
      ],
      "stateMutability": "view",
      "type": "function"
    },
    {
      "inputs": [
        {
          "internalType": "bytes4",
          "name": "interfaceId",
          "type": "bytes4"
        }
      ],
      "name": "supportsInterface",
      "outputs": [
        {
          "internalType": "bool",
          "name": "",
          "type": "bool"
        }
      ],
      "stateMutability": "view",
      "type": "function"
    },
    {
      "inputs": [],
      "name": "symbol",
      "outputs": [
        {
          "internalType": "string",
          "name": "",
          "type": "string"
        }
      ],
      "stateMutability": "view",
      "type": "function"
    },
    {
      "inputs": [
        {
          "internalType": "uint256",
          "name": "index",
          "type": "uint256"
        }
      ],
      "name": "tokenByIndex",
      "outputs": [
        {
          "internalType": "uint256",
          "name": "",
          "type": "uint256"
        }
      ],
      "stateMutability": "view",
      "type": "function"
    },
    {
      "inputs": [
        {
          "internalType": "address",
          "name": "owner",
          "type": "address"
        },
        {
          "internalType": "uint256",
          "name": "index",
          "type": "uint256"
        }
      ],
      "name": "tokenOfOwnerByIndex",
      "outputs": [
        {
          "internalType": "uint256",
          "name": "",
          "type": "uint256"
        }
      ],
      "stateMutability": "view",
      "type": "function"
    },
    {
      "inputs": [
        {
          "internalType": "uint256",
          "name": "tokenId",
          "type": "uint256"
        }
      ],
      "name": "tokenURI",
      "outputs": [
        {
          "internalType": "string",
          "name": "",
          "type": "string"
        }
      ],
      "stateMutability": "view",
      "type": "function"
    },
    {
      "inputs": [],
      "name": "totalSupply",
      "outputs": [
        {
          "internalType": "uint256",
          "name": "",
          "type": "uint256"
        }
      ],
      "stateMutability": "view",
      "type": "function"
    },
    {
      "inputs": [
        {
          "internalType": "address",
          "name": "from",
          "type": "address"
        },
        {
          "internalType": "address",
          "name": "to",
          "type": "address"
        },
        {
          "internalType": "uint256",
          "name": "tokenId",
          "type": "uint256"
        }
      ],
      "name": "transferFrom",
      "outputs": [],
      "stateMutability": "nonpayable",
      "type": "function"
    },
    {
      "inputs": [
        {
          "internalType": "address",
          "name": "owner",
          "type": "address"
        },
        {
          "internalType": "string",
          "name": "_props",
          "type": "string"
        },
        {
          "internalType": "uint256",
          "name": "_storyTokenId",
          "type": "uint256"
        }
      ],
      "name": "createStoryInteraction",
      "outputs": [],
      "stateMutability": "payable",
      "type": "function"
    }
  ],
  "bytecode": "0x60806040523480156200001157600080fd5b5060405162003bdb38038062003bdb833981810160405260c08110156200003757600080fd5b81019080805160405193929190846401000000008211156200005857600080fd5b838201915060208201858111156200006f57600080fd5b82518660018202830111640100000000821117156200008d57600080fd5b8083526020830192505050908051906020019080838360005b83811015620000c3578082015181840152602081019050620000a6565b50505050905090810190601f168015620000f15780820380516001836020036101000a031916815260200191505b50604052602001805160405193929190846401000000008211156200011557600080fd5b838201915060208201858111156200012c57600080fd5b82518660018202830111640100000000821117156200014a57600080fd5b8083526020830192505050908051906020019080838360005b838110156200018057808201518184015260208101905062000163565b50505050905090810190601f168015620001ae5780820380516001836020036101000a031916815260200191505b50604052602001805190602001909291908051906020019092919080519060200190929190805190602001909291905050508585620001fa6301ffc9a760e01b620003e360201b60201c565b816006908051906020019062000212929190620004ec565b5080600790805190602001906200022b929190620004ec565b50620002446380ac58cd60e01b620003e360201b60201c565b6200025c635b5e139f60e01b620003e360201b60201c565b6200027463780e9d6360e01b620003e360201b60201c565b505083600a60006101000a81548173ffffffffffffffffffffffffffffffffffffffff021916908373ffffffffffffffffffffffffffffffffffffffff16021790555082600b60006101000a81548173ffffffffffffffffffffffffffffffffffffffff021916908373ffffffffffffffffffffffffffffffffffffffff16021790555081600c60006101000a81548173ffffffffffffffffffffffffffffffffffffffff021916908373ffffffffffffffffffffffffffffffffffffffff16021790555080600e60006101000a81548173ffffffffffffffffffffffffffffffffffffffff021916908373ffffffffffffffffffffffffffffffffffffffff1602179055506000600e60146101000a81548160ff021916908360ff16021790555033601160006101000a81548173ffffffffffffffffffffffffffffffffffffffff021916908373ffffffffffffffffffffffffffffffffffffffff160217905550505050505050620005a2565b63ffffffff60e01b817bffffffffffffffffffffffffffffffffffffffffffffffffffffffff1916141562000480576040517f08c379a000000000000000000000000000000000000000000000000000000000815260040180806020018281038252601c8152602001807f4552433136353a20696e76616c696420696e746572666163652069640000000081525060200191505060405180910390fd5b6001600080837bffffffffffffffffffffffffffffffffffffffffffffffffffffffff19167bffffffffffffffffffffffffffffffffffffffffffffffffffffffff1916815260200190815260200160002060006101000a81548160ff02191690831515021790555050565b828054600181600116156101000203166002900490600052602060002090601f01602090048101928262000524576000855562000570565b82601f106200053f57805160ff191683800117855562000570565b8280016001018555821562000570579182015b828111156200056f57825182559160200191906001019062000552565b5b5090506200057f919062000583565b5090565b5b808211156200059e57600081600090555060010162000584565b5090565b61362980620005b26000396000f3fe60806040526004361061012a5760003560e01c80634f6ccce7116100ab578063a22cb4651161006f578063a22cb46514610778578063b88d4fde146107d5578063c5a4e54a146108e7578063c87b56dd1461098a578063e985e9c514610a3e578063f9d415e814610ac55761012a565b80634f6ccce71461053f5780636352211e1461058e5780636c0360eb146105f357806370a082311461068357806395d89b41146106e85761012a565b806318160ddd116100f257806318160ddd1461035657806323b872dd146103815780632af60ac0146103fc5780632f745c591461045557806342842e0e146104c45761012a565b806301ffc9a71461012f5780630330ee651461019f57806306fdde0314610206578063081812fc14610296578063095ea7b3146102fb575b600080fd5b34801561013b57600080fd5b506101876004803603602081101561015257600080fd5b8101908080357bffffffffffffffffffffffffffffffffffffffffffffffffffffffff19169060200190929190505050610af3565b60405180821515815260200191505060405180910390f35b3480156101ab57600080fd5b506101ee600480360360208110156101c257600080fd5b81019080803573ffffffffffffffffffffffffffffffffffffffff169060200190929190505050610b5a565b60405180821515815260200191505060405180910390f35b34801561021257600080fd5b5061021b610b7a565b6040518080602001828103825283818151815260200191508051906020019080838360005b8381101561025b578082015181840152602081019050610240565b50505050905090810190601f1680156102885780820380516001836020036101000a031916815260200191505b509250505060405180910390f35b3480156102a257600080fd5b506102cf600480360360208110156102b957600080fd5b8101908080359060200190929190505050610c1c565b604051808273ffffffffffffffffffffffffffffffffffffffff16815260200191505060405180910390f35b34801561030757600080fd5b506103546004803603604081101561031e57600080fd5b81019080803573ffffffffffffffffffffffffffffffffffffffff16906020019092919080359060200190929190505050610cb7565b005b34801561036257600080fd5b5061036b610dfb565b6040518082815260200191505060405180910390f35b34801561038d57600080fd5b506103fa600480360360608110156103a457600080fd5b81019080803573ffffffffffffffffffffffffffffffffffffffff169060200190929190803573ffffffffffffffffffffffffffffffffffffffff16906020019092919080359060200190929190505050610e0c565b005b34801561040857600080fd5b5061043f6004803603604081101561041f57600080fd5b810190808035906020019092919080359060200190929190505050610e82565b6040518082815260200191505060405180910390f35b34801561046157600080fd5b506104ae6004803603604081101561047857600080fd5b81019080803573ffffffffffffffffffffffffffffffffffffffff16906020019092919080359060200190929190505050610eb3565b6040518082815260200191505060405180910390f35b3480156104d057600080fd5b5061053d600480360360608110156104e757600080fd5b81019080803573ffffffffffffffffffffffffffffffffffffffff169060200190929190803573ffffffffffffffffffffffffffffffffffffffff16906020019092919080359060200190929190505050610f0e565b005b34801561054b57600080fd5b506105786004803603602081101561056257600080fd5b8101908080359060200190929190505050610f2e565b6040518082815260200191505060405180910390f35b34801561059a57600080fd5b506105c7600480360360208110156105b157600080fd5b8101908080359060200190929190505050610f51565b604051808273ffffffffffffffffffffffffffffffffffffffff16815260200191505060405180910390f35b3480156105ff57600080fd5b50610608610f88565b6040518080602001828103825283818151815260200191508051906020019080838360005b8381101561064857808201518184015260208101905061062d565b50505050905090810190601f1680156106755780820380516001836020036101000a031916815260200191505b509250505060405180910390f35b34801561068f57600080fd5b506106d2600480360360208110156106a657600080fd5b81019080803573ffffffffffffffffffffffffffffffffffffffff16906020019092919050505061102a565b6040518082815260200191505060405180910390f35b3480156106f457600080fd5b506106fd6110ff565b6040518080602001828103825283818151815260200191508051906020019080838360005b8381101561073d578082015181840152602081019050610722565b50505050905090810190601f16801561076a5780820380516001836020036101000a031916815260200191505b509250505060405180910390f35b34801561078457600080fd5b506107d36004803603604081101561079b57600080fd5b81019080803573ffffffffffffffffffffffffffffffffffffffff1690602001909291908035151590602001909291905050506111a1565b005b3480156107e157600080fd5b506108e5600480360360808110156107f857600080fd5b81019080803573ffffffffffffffffffffffffffffffffffffffff169060200190929190803573ffffffffffffffffffffffffffffffffffffffff169060200190929190803590602001909291908035906020019064010000000081111561085f57600080fd5b82018360208201111561087157600080fd5b8035906020019184600183028401116401000000008311171561089357600080fd5b91908080601f016020809104026020016040519081016040528093929190818152602001838380828437600081840152601f19601f820116905080830192505050505050509192919290505050611357565b005b610988600480360360608110156108fd57600080fd5b81019080803573ffffffffffffffffffffffffffffffffffffffff1690602001909291908035906020019064010000000081111561093a57600080fd5b82018360208201111561094c57600080fd5b8035906020019184600183028401116401000000008311171561096e57600080fd5b9091929391929390803590602001909291905050506113cf565b005b34801561099657600080fd5b506109c3600480360360208110156109ad57600080fd5b8101908080359060200190929190505050611805565b6040518080602001828103825283818151815260200191508051906020019080838360005b83811015610a035780820151818401526020810190506109e8565b50505050905090810190601f168015610a305780820380516001836020036101000a031916815260200191505b509250505060405180910390f35b348015610a4a57600080fd5b50610aad60048036036040811015610a6157600080fd5b81019080803573ffffffffffffffffffffffffffffffffffffffff169060200190929190803573ffffffffffffffffffffffffffffffffffffffff169060200190929190505050611ad6565b60405180821515815260200191505060405180910390f35b348015610ad157600080fd5b50610ada611b6a565b604051808260ff16815260200191505060405180910390f35b6000806000837bffffffffffffffffffffffffffffffffffffffffffffffffffffffff19167bffffffffffffffffffffffffffffffffffffffffffffffffffffffff1916815260200190815260200160002060009054906101000a900460ff169050919050565b60106020528060005260406000206000915054906101000a900460ff1681565b606060068054600181600116156101000203166002900480601f016020809104026020016040519081016040528092919081815260200182805460018160011615610100020316600290048015610c125780601f10610be757610100808354040283529160200191610c12565b820191906000526020600020905b815481529060010190602001808311610bf557829003601f168201915b5050505050905090565b6000610c2782611b7d565b610c7c576040517f08c379a000000000000000000000000000000000000000000000000000000000815260040180806020018281038252602c8152602001806134a9602c913960400191505060405180910390fd5b6004600083815260200190815260200160002060009054906101000a900473ffffffffffffffffffffffffffffffffffffffff169050919050565b6000610cc282610f51565b90508073ffffffffffffffffffffffffffffffffffffffff168373ffffffffffffffffffffffffffffffffffffffff161415610d49576040517f08c379a00000000000000000000000000000000000000000000000000000000081526004018080602001828103825260218152602001806135a26021913960400191505060405180910390fd5b8073ffffffffffffffffffffffffffffffffffffffff16610d68611b9a565b73ffffffffffffffffffffffffffffffffffffffff161480610d975750610d9681610d91611b9a565b611ad6565b5b610dec576040517f08c379a00000000000000000000000000000000000000000000000000000000081526004018080602001828103825260388152602001806133c56038913960400191505060405180910390fd5b610df68383611ba2565b505050565b6000610e076002611c5b565b905090565b610e1d610e17611b9a565b82611c70565b610e72576040517f08c379a00000000000000000000000000000000000000000000000000000000081526004018080602001828103825260318152602001806135c36031913960400191505060405180910390fd5b610e7d838383611d64565b505050565b600f6020528160005260406000208181548110610e9e57600080fd5b90600052602060002001600091509150505481565b6000610f0682600160008673ffffffffffffffffffffffffffffffffffffffff1673ffffffffffffffffffffffffffffffffffffffff168152602001908152602001600020611fa790919063ffffffff16565b905092915050565b610f2983838360405180602001604052806000815250611357565b505050565b600080610f45836002611fc190919063ffffffff16565b50905080915050919050565b6000610f818260405180606001604052806029815260200161345e602991396002611fed9092919063ffffffff16565b9050919050565b606060098054600181600116156101000203166002900480601f0160208091040260200160405190810160405280929190818152602001828054600181600116156101000203166002900480156110205780601f10610ff557610100808354040283529160200191611020565b820191906000526020600020905b81548152906001019060200180831161100357829003601f168201915b5050505050905090565b60008073ffffffffffffffffffffffffffffffffffffffff168273ffffffffffffffffffffffffffffffffffffffff1614156110b1576040517f08c379a000000000000000000000000000000000000000000000000000000000815260040180806020018281038252602a8152602001806133fd602a913960400191505060405180910390fd5b6110f8600160008473ffffffffffffffffffffffffffffffffffffffff1673ffffffffffffffffffffffffffffffffffffffff16815260200190815260200160002061200c565b9050919050565b606060078054600181600116156101000203166002900480601f0160208091040260200160405190810160405280929190818152602001828054600181600116156101000203166002900480156111975780601f1061116c57610100808354040283529160200191611197565b820191906000526020600020905b81548152906001019060200180831161117a57829003601f168201915b5050505050905090565b6111a9611b9a565b73ffffffffffffffffffffffffffffffffffffffff168273ffffffffffffffffffffffffffffffffffffffff16141561124a576040517f08c379a00000000000000000000000000000000000000000000000000000000081526004018080602001828103825260198152602001807f4552433732313a20617070726f766520746f2063616c6c65720000000000000081525060200191505060405180910390fd5b8060056000611257611b9a565b73ffffffffffffffffffffffffffffffffffffffff1673ffffffffffffffffffffffffffffffffffffffff16815260200190815260200160002060008473ffffffffffffffffffffffffffffffffffffffff1673ffffffffffffffffffffffffffffffffffffffff16815260200190815260200160002060006101000a81548160ff0219169083151502179055508173ffffffffffffffffffffffffffffffffffffffff16611304611b9a565b73ffffffffffffffffffffffffffffffffffffffff167f17307eab39ab6107e8899845ad3d59bd9653f200f220920489ca2b5937696c318360405180821515815260200191505060405180910390a35050565b611368611362611b9a565b83611c70565b6113bd576040517f08c379a00000000000000000000000000000000000000000000000000000000081526004018080602001828103825260318152602001806135c36031913960400191505060405180910390fd5b6113c984848484612021565b50505050565b601160009054906101000a900473ffffffffffffffffffffffffffffffffffffffff1673ffffffffffffffffffffffffffffffffffffffff163373ffffffffffffffffffffffffffffffffffffffff1614611475576040517f08c379a00000000000000000000000000000000000000000000000000000000081526004018080602001828103825260378152602001806134276037913960400191505060405180910390fd5b6000600e60009054906101000a900473ffffffffffffffffffffffffffffffffffffffff1673ffffffffffffffffffffffffffffffffffffffff16636352211e836040518263ffffffff1660e01b81526004018082815260200191505060206040518083038186803b1580156114ea57600080fd5b505afa1580156114fe573d6000803e3d6000fd5b505050506040513d602081101561151457600080fd5b810190808051906020019092919050505090508473ffffffffffffffffffffffffffffffffffffffff168173ffffffffffffffffffffffffffffffffffffffff1614156115ac576040517f08c379a00000000000000000000000000000000000000000000000000000000081526004018080602001828103825260498152602001806135596049913960600191505060405180910390fd5b60006115b8600d612093565b90506115c486826120a1565b6116128186868080601f016020809104026020016040519081016040528093929190818152602001838380828437600081840152601f19601f82011690508083019250505050505050612295565b61161c600d61231f565b6000600f6000858152602001908152602001600020829080600181540180825580915050600190039060005260206000200160009091909190915055601060008473ffffffffffffffffffffffffffffffffffffffff1673ffffffffffffffffffffffffffffffffffffffff16815260200190815260200160002060009054906101000a900460ff161580156116c457506014600e60149054906101000a900460ff1660ff16105b15611761576116d283612335565b6001601060008573ffffffffffffffffffffffffffffffffffffffff1673ffffffffffffffffffffffffffffffffffffffff16815260200190815260200160002060006101000a81548160ff021916908315150217905550600e601481819054906101000a900460ff168092919060010191906101000a81548160ff021916908360ff16021790555050600190505b7fcdcd6ed6040ef31ef8deeeb8ab6a4354236245fefbef86dae0d7abe9a6178816828888888886604051808781526020018673ffffffffffffffffffffffffffffffffffffffff1681526020018060200184815260200183151581526020018281038252868682818152602001925080828437600081840152601f19601f82011690508083019250505097505050505050505060405180910390a150505050505050565b606061181082611b7d565b611865576040517f08c379a000000000000000000000000000000000000000000000000000000000815260040180806020018281038252602f81526020018061352a602f913960400191505060405180910390fd5b6000600860008481526020019081526020016000208054600181600116156101000203166002900480601f01602080910402602001604051908101604052809291908181526020018280546001816001161561010002031660029004801561190e5780601f106118e35761010080835404028352916020019161190e565b820191906000526020600020905b8154815290600101906020018083116118f157829003601f168201915b50505050509050600061191f610f88565b9050600081511415611935578192505050611ad1565b600082511115611a065780826040516020018083805190602001908083835b602083106119775780518252602082019150602081019050602083039250611954565b6001836020036101000a03801982511681845116808217855250505050505090500182805190602001908083835b602083106119c857805182526020820191506020810190506020830392506119a5565b6001836020036101000a0380198251168184511680821785525050505050509050019250505060405160208183030381529060405292505050611ad1565b80611a108561271a565b6040516020018083805190602001908083835b60208310611a465780518252602082019150602081019050602083039250611a23565b6001836020036101000a03801982511681845116808217855250505050505090500182805190602001908083835b60208310611a975780518252602082019150602081019050602083039250611a74565b6001836020036101000a03801982511681845116808217855250505050505090500192505050604051602081830303815290604052925050505b919050565b6000600560008473ffffffffffffffffffffffffffffffffffffffff1673ffffffffffffffffffffffffffffffffffffffff16815260200190815260200160002060008373ffffffffffffffffffffffffffffffffffffffff1673ffffffffffffffffffffffffffffffffffffffff16815260200190815260200160002060009054906101000a900460ff16905092915050565b600e60149054906101000a900460ff1681565b6000611b9382600261286190919063ffffffff16565b9050919050565b600033905090565b816004600083815260200190815260200160002060006101000a81548173ffffffffffffffffffffffffffffffffffffffff021916908373ffffffffffffffffffffffffffffffffffffffff160217905550808273ffffffffffffffffffffffffffffffffffffffff16611c1583610f51565b73ffffffffffffffffffffffffffffffffffffffff167f8c5be1e5ebec7d5bd14f71427d1e84f3dd0314c0f7b2291e5b200ac8c7c3b92560405160405180910390a45050565b6000611c698260000161287b565b9050919050565b6000611c7b82611b7d565b611cd0576040517f08c379a000000000000000000000000000000000000000000000000000000000815260040180806020018281038252602c815260200180613399602c913960400191505060405180910390fd5b6000611cdb83610f51565b90508073ffffffffffffffffffffffffffffffffffffffff168473ffffffffffffffffffffffffffffffffffffffff161480611d4a57508373ffffffffffffffffffffffffffffffffffffffff16611d3284610c1c565b73ffffffffffffffffffffffffffffffffffffffff16145b80611d5b5750611d5a8185611ad6565b5b91505092915050565b8273ffffffffffffffffffffffffffffffffffffffff16611d8482610f51565b73ffffffffffffffffffffffffffffffffffffffff1614611df0576040517f08c379a00000000000000000000000000000000000000000000000000000000081526004018080602001828103825260298152602001806135016029913960400191505060405180910390fd5b600073ffffffffffffffffffffffffffffffffffffffff168273ffffffffffffffffffffffffffffffffffffffff161415611e76576040517f08c379a000000000000000000000000000000000000000000000000000000000815260040180806020018281038252602481526020018061334f6024913960400191505060405180910390fd5b611e8183838361288c565b611e8c600082611ba2565b611edd81600160008673ffffffffffffffffffffffffffffffffffffffff1673ffffffffffffffffffffffffffffffffffffffff16815260200190815260200160002061289190919063ffffffff16565b50611f2f81600160008573ffffffffffffffffffffffffffffffffffffffff1673ffffffffffffffffffffffffffffffffffffffff1681526020019081526020016000206128ab90919063ffffffff16565b50611f46818360026128c59092919063ffffffff16565b50808273ffffffffffffffffffffffffffffffffffffffff168473ffffffffffffffffffffffffffffffffffffffff167fddf252ad1be2c89b69c2b068fc378daa952ba7f163c4a11628f55a4df523b3ef60405160405180910390a4505050565b6000611fb683600001836128fa565b60001c905092915050565b600080600080611fd4866000018661297d565b915091508160001c8160001c9350935050509250929050565b6000612000846000018460001b84612a16565b60001c90509392505050565b600061201a82600001612b0c565b9050919050565b61202c848484611d64565b61203884848484612b1d565b61208d576040517f08c379a000000000000000000000000000000000000000000000000000000000815260040180806020018281038252603281526020018061331d6032913960400191505060405180910390fd5b50505050565b600081600001549050919050565b600073ffffffffffffffffffffffffffffffffffffffff168273ffffffffffffffffffffffffffffffffffffffff161415612144576040517f08c379a00000000000000000000000000000000000000000000000000000000081526004018080602001828103825260208152602001807f4552433732313a206d696e7420746f20746865207a65726f206164647265737381525060200191505060405180910390fd5b61214d81611b7d565b156121c0576040517f08c379a000000000000000000000000000000000000000000000000000000000815260040180806020018281038252601c8152602001807f4552433732313a20746f6b656e20616c7265616479206d696e7465640000000081525060200191505060405180910390fd5b6121cc6000838361288c565b61221d81600160008573ffffffffffffffffffffffffffffffffffffffff1673ffffffffffffffffffffffffffffffffffffffff1681526020019081526020016000206128ab90919063ffffffff16565b50612234818360026128c59092919063ffffffff16565b50808273ffffffffffffffffffffffffffffffffffffffff16600073ffffffffffffffffffffffffffffffffffffffff167fddf252ad1be2c89b69c2b068fc378daa952ba7f163c4a11628f55a4df523b3ef60405160405180910390a45050565b61229e82611b7d565b6122f3576040517f08c379a000000000000000000000000000000000000000000000000000000000815260040180806020018281038252602c8152602001806134d5602c913960400191505060405180910390fd5b8060086000848152602001908152602001600020908051906020019061231a92919061324f565b505050565b6001816000016000828254019250508190555050565b600a60009054906101000a900473ffffffffffffffffffffffffffffffffffffffff1673ffffffffffffffffffffffffffffffffffffffff166339255d5b600b60009054906101000a900473ffffffffffffffffffffffffffffffffffffffff166362fc305e60e01b600c60009054906101000a900473ffffffffffffffffffffffffffffffffffffffff1685691e7e4171bf4d3a000000600067ffffffffffffffff811180156123e557600080fd5b506040519080825280601f01601f1916602001820160405280156124185781602001600182028036833780820191505090505b50604051602401808573ffffffffffffffffffffffffffffffffffffffff1681526020018473ffffffffffffffffffffffffffffffffffffffff16815260200183815260200180602001828103825283818151815260200191508051906020019080838360005b8381101561249a57808201518184015260208101905061247f565b50505050905090810190601f1680156124c75780820380516001836020036101000a031916815260200191505b5095505050505050604051602081830303815290604052907bffffffffffffffffffffffffffffffffffffffffffffffffffffffff19166020820180517bffffffffffffffffffffffffffffffffffffffffffffffffffffffff83818316178352505050506040518363ffffffff1660e01b8152600401808373ffffffffffffffffffffffffffffffffffffffff1681526020018060200180602001838103835284818151815260200191508051906020019080838360005b8381101561259b578082015181840152602081019050612580565b50505050905090810190601f1680156125c85780820380516001836020036101000a031916815260200191505b50838103825260028152602001807f3078000000000000000000000000000000000000000000000000000000000000815250602001945050505050600060405180830381600087803b15801561261d57600080fd5b505af1158015612631573d6000803e3d6000fd5b505050506040513d6000823e3d601f19601f82011682018060405250602081101561265b57600080fd5b810190808051604051939291908464010000000082111561267b57600080fd5b8382019150602082018581111561269157600080fd5b82518660018202830111640100000000821117156126ae57600080fd5b8083526020830192505050908051906020019080838360005b838110156126e25780820151818401526020810190506126c7565b50505050905090810190601f16801561270f5780820380516001836020036101000a031916815260200191505b506040525050505050565b60606000821415612762576040518060400160405280600181526020017f3000000000000000000000000000000000000000000000000000000000000000815250905061285c565b600082905060005b6000821461278c578080600101915050600a828161278457fe5b04915061276a565b60008167ffffffffffffffff811180156127a557600080fd5b506040519080825280601f01601f1916602001820160405280156127d85781602001600182028036833780820191505090505b50905060006001830390508593505b6000841461285457600a84816127f957fe5b0660300160f81b8282806001900393508151811061281357fe5b60200101907effffffffffffffffffffffffffffffffffffffffffffffffffffffffffffff1916908160001a905350600a848161284c57fe5b0493506127e7565b819450505050505b919050565b6000612873836000018360001b612d36565b905092915050565b600081600001805490509050919050565b505050565b60006128a3836000018360001b612d59565b905092915050565b60006128bd836000018360001b612e41565b905092915050565b60006128f1846000018460001b8473ffffffffffffffffffffffffffffffffffffffff1660001b612eb1565b90509392505050565b60008183600001805490501161295b576040517f08c379a00000000000000000000000000000000000000000000000000000000081526004018080602001828103825260228152602001806132fb6022913960400191505060405180910390fd5b82600001828154811061296a57fe5b9060005260206000200154905092915050565b600080828460000180549050116129df576040517f08c379a00000000000000000000000000000000000000000000000000000000081526004018080602001828103825260228152602001806134876022913960400191505060405180910390fd5b60008460000184815481106129f057fe5b906000526020600020906002020190508060000154816001015492509250509250929050565b60008084600101600085815260200190815260200160002054905060008114158390612add576040517f08c379a00000000000000000000000000000000000000000000000000000000081526004018080602001828103825283818151815260200191508051906020019080838360005b83811015612aa2578082015181840152602081019050612a87565b50505050905090810190601f168015612acf5780820380516001836020036101000a031916815260200191505b509250505060405180910390fd5b50846000016001820381548110612af057fe5b9060005260206000209060020201600101549150509392505050565b600081600001805490509050919050565b6000612b3e8473ffffffffffffffffffffffffffffffffffffffff16612f8d565b612b4b5760019050612d2e565b6000612cb563150b7a0260e01b612b60611b9a565b888787604051602401808573ffffffffffffffffffffffffffffffffffffffff1681526020018473ffffffffffffffffffffffffffffffffffffffff16815260200183815260200180602001828103825283818151815260200191508051906020019080838360005b83811015612be4578082015181840152602081019050612bc9565b50505050905090810190601f168015612c115780820380516001836020036101000a031916815260200191505b5095505050505050604051602081830303815290604052907bffffffffffffffffffffffffffffffffffffffffffffffffffffffff19166020820180517bffffffffffffffffffffffffffffffffffffffffffffffffffffffff838183161783525050505060405180606001604052806032815260200161331d603291398773ffffffffffffffffffffffffffffffffffffffff16612fa09092919063ffffffff16565b90506000818060200190516020811015612cce57600080fd5b8101908080519060200190929190505050905063150b7a0260e01b7bffffffffffffffffffffffffffffffffffffffffffffffffffffffff1916817bffffffffffffffffffffffffffffffffffffffffffffffffffffffff191614925050505b949350505050565b600080836001016000848152602001908152602001600020541415905092915050565b60008083600101600084815260200190815260200160002054905060008114612e355760006001820390506000600186600001805490500390506000866000018281548110612da457fe5b9060005260206000200154905080876000018481548110612dc157fe5b9060005260206000200181905550600183018760010160008381526020019081526020016000208190555086600001805480612df957fe5b60019003818190600052602060002001600090559055866001016000878152602001908152602001600020600090556001945050505050612e3b565b60009150505b92915050565b6000612e4d8383612fb8565b612ea6578260000182908060018154018082558091505060019003906000526020600020016000909190919091505582600001805490508360010160008481526020019081526020016000208190555060019050612eab565b600090505b92915050565b6000808460010160008581526020019081526020016000205490506000811415612f5857846000016040518060400160405280868152602001858152509080600181540180825580915050600190039060005260206000209060020201600090919091909150600082015181600001556020820151816001015550508460000180549050856001016000868152602001908152602001600020819055506001915050612f86565b82856000016001830381548110612f6b57fe5b90600052602060002090600202016001018190555060009150505b9392505050565b600080823b905060008111915050919050565b6060612faf8484600085612fdb565b90509392505050565b600080836001016000848152602001908152602001600020541415905092915050565b606082471015613036576040517f08c379a00000000000000000000000000000000000000000000000000000000081526004018080602001828103825260268152602001806133736026913960400191505060405180910390fd5b61303f85612f8d565b6130b1576040517f08c379a000000000000000000000000000000000000000000000000000000000815260040180806020018281038252601d8152602001807f416464726573733a2063616c6c20746f206e6f6e2d636f6e747261637400000081525060200191505060405180910390fd5b6000808673ffffffffffffffffffffffffffffffffffffffff1685876040518082805190602001908083835b6020831061310057805182526020820191506020810190506020830392506130dd565b6001836020036101000a03801982511681845116808217855250505050505090500191505060006040518083038185875af1925050503d8060008114613162576040519150601f19603f3d011682016040523d82523d6000602084013e613167565b606091505b5091509150613177828286613183565b92505050949350505050565b6060831561319357829050613248565b6000835111156131a65782518084602001fd5b816040517f08c379a00000000000000000000000000000000000000000000000000000000081526004018080602001828103825283818151815260200191508051906020019080838360005b8381101561320d5780820151818401526020810190506131f2565b50505050905090810190601f16801561323a5780820380516001836020036101000a031916815260200191505b509250505060405180910390fd5b9392505050565b828054600181600116156101000203166002900490600052602060002090601f01602090048101928261328557600085556132cc565b82601f1061329e57805160ff19168380011785556132cc565b828001600101855582156132cc579182015b828111156132cb5782518255916020019190600101906132b0565b5b5090506132d991906132dd565b5090565b5b808211156132f65760008160009055506001016132de565b509056fe456e756d657261626c655365743a20696e646578206f7574206f6620626f756e64734552433732313a207472616e7366657220746f206e6f6e20455243373231526563656976657220696d706c656d656e7465724552433732313a207472616e7366657220746f20746865207a65726f2061646472657373416464726573733a20696e73756666696369656e742062616c616e636520666f722063616c6c4552433732313a206f70657261746f7220717565727920666f72206e6f6e6578697374656e7420746f6b656e4552433732313a20617070726f76652063616c6c6572206973206e6f74206f776e6572206e6f7220617070726f76656420666f7220616c6c4552433732313a2062616c616e636520717565727920666f7220746865207a65726f2061646472657373546869732063616e2062652063616c6c6564206f6e6c7920627920746865206465706c6f796572206f662074686520636f6e74726163744552433732313a206f776e657220717565727920666f72206e6f6e6578697374656e7420746f6b656e456e756d657261626c654d61703a20696e646578206f7574206f6620626f756e64734552433732313a20617070726f76656420717565727920666f72206e6f6e6578697374656e7420746f6b656e4552433732314d657461646174613a2055524920736574206f66206e6f6e6578697374656e7420746f6b656e4552433732313a207472616e73666572206f6620746f6b656e2074686174206973206e6f74206f776e4552433732314d657461646174613a2055524920717565727920666f72206e6f6e6578697374656e7420746f6b656e546865206f776e6572206f66207468652073746f7279206973206e6f7420616c6c6f77656420746f20696e7465726163742077697468207468656972206f776e2073746f726965732e4552433732313a20617070726f76616c20746f2063757272656e74206f776e65724552433732313a207472616e736665722063616c6c6572206973206e6f74206f776e6572206e6f7220617070726f766564a264697066735822122081273a35a38f64b481509bfadcd22c85594b542987ceac8c93a07a67f5b8874764736f6c63430007060033",
  "immutableReferences": {},
  "source": "pragma solidity ^0.7.0;\n\nimport \"@openzeppelin/contracts/token/ERC721/IERC721Metadata.sol\";\nimport \"@openzeppelin/contracts/token/ERC721/ERC721.sol\";\nimport \"@openzeppelin/contracts/utils/Counters.sol\";\nimport \"@openzeppelin/contracts/math/SafeMath.sol\";\n\nimport {\n    ISuperfluid,\n    ISuperToken,\n    ISuperApp,\n    ISuperAgreement,\n    SuperAppDefinitions\n} from \"@superfluid-finance/ethereum-contracts/contracts/interfaces/superfluid/ISuperfluid.sol\"; //\"@superfluid-finance/ethereum-monorepo/packages/ethereum-contracts/contracts/interfaces/superfluid/ISuperfluid.sol\";\n\nimport {\n    IConstantFlowAgreementV1\n} from \"@superfluid-finance/ethereum-contracts/contracts/interfaces/agreements/IConstantFlowAgreementV1.sol\";\n\nimport \"./StoryFactory.sol\";\n\ncontract StoryInteractionFactory is ERC721 {\n    using Counters for Counters.Counter;\n    using SafeMath for uint256;\n\n    /*\n     * Superfluid contracts instances used for a\n     * distribution flow\n     */\n    ISuperfluid private host;\n    IConstantFlowAgreementV1 private cfa;\n    ISuperToken private hSpaceToken;\n\n    // TokenID counter for the NFT\n    // to keep track of the number of NFTs minted\n    Counters.Counter private tokenId; \n\n    // The parent NFT contract instance\n    StoryFactory private stories;\n\n    // the count of the active streams.\n    // The distribution shouldn't open more than 20 streams\n    uint8 public activeStreamsCount;\n\n    mapping(uint256 => uint256[]) public storyInteractions;\n    mapping(address => bool) public startedStream;\n\n    address deployer;\n\n    /* \n        This event is emited when a story interaction NFT is created\n    */\n    event StoryInteractionCreated(\n        uint256 tokenId,\n        address interactionCreator,\n        string props,\n        uint256 storyTokenId,\n        bool openStream\n    );\n\n    constructor(\n        string memory _name,\n        string memory _symbol,\n        address _hostAddress,\n        address _cfaAddress,\n        address _hSpaceTokenAddress,\n        address _storyFactoryAddress\n    ) public ERC721(_name, _symbol) {\n        host = ISuperfluid(_hostAddress);\n        cfa = IConstantFlowAgreementV1(_cfaAddress);\n        hSpaceToken = ISuperToken(_hSpaceTokenAddress);\n        stories = StoryFactory(_storyFactoryAddress);\n        activeStreamsCount = 0;\n        deployer = msg.sender;\n    }\n\n    /* \n        createStoryInteraction mints a new \"child\" of the original story NFT.\n        If there are no open streams to the story owner and there haven't been opened 20 streams yet,\n        the function opens a new one.\n        The story owner will receive 25 HSPACE tokens in 15 days.\n    */\n    function createStoryInteraction(\n        address owner,\n        string calldata _props,\n        uint256 _storyTokenId\n    ) external payable {\n\n        require(msg.sender == deployer, 'This can be called only by the deployer of the contract');\n\n        // get the address of the story owner\n        address ownerOfTheStory = stories.ownerOf(_storyTokenId);\n\n        require(ownerOfTheStory != owner, 'The owner of the story is not allowed to interact with their own stories.');\n        \n        // mint the interaction NFT\n        uint256 newItemId = tokenId.current();\n        _mint(owner, newItemId);\n        _setTokenURI(newItemId, _props);\n        tokenId.increment();\n\n        bool openStream = false;\n\n        // add to the parent story's mapping\n        storyInteractions[_storyTokenId].push(newItemId);\n\n\n        // check if \n        // 1. there's already created stream to the story owner\n        // 2. there are still empty slots for opening a stream\n        // -> create a stream \n        if (!startedStream[ownerOfTheStory] && activeStreamsCount < 20) {\n            _createStream(ownerOfTheStory);\n            startedStream[ownerOfTheStory] = true;\n            activeStreamsCount++;\n            openStream = true;\n        }\n\n        // Emit event with the new NFT data and a value showing whether the stream for this user has been opened.\n        emit StoryInteractionCreated(newItemId, owner, _props, _storyTokenId, openStream);\n    }\n\n    /**\n        Creates SuperFluid constant agreement flow.\n        It will be sending the recipient 25 tokens in period of 15 days.\n     */\n    function _createStream(address _receiver) internal {\n        host.callAgreement(\n            cfa,\n            abi.encodeWithSelector(\n                cfa.createFlow.selector,\n                hSpaceToken,\n                _receiver,\n                uint256((25 * 1e18) / (15 / 24 / 3600)), // 25 tokens for 15 days\n                new bytes(0)\n            ),\n            \"0x\"\n        );\n    }\n}\n",
  "sourcePath": "/Users/migrenaa/Desktop/dev/non-zone/NFT-Hack/non-zone-contracts/contracts/StoryInteractionFactory.sol",
  "compiler": {
    "name": "solc",
    "version": "0.7.6+commit.7338295f.Emscripten.clang"
  },
  "schemaVersion": "3.3.4",
  "updatedAt": "2021-04-16T10:09:27.297Z",
  "devdoc": {
    "kind": "dev",
    "methods": {
      "approve(address,uint256)": {
        "details": "See {IERC721-approve}."
      },
      "balanceOf(address)": {
        "details": "See {IERC721-balanceOf}."
      },
      "baseURI()": {
        "details": "Returns the base URI set via {_setBaseURI}. This will be automatically added as a prefix in {tokenURI} to each token's URI, or to the token ID if no specific URI is set for that token ID."
      },
      "getApproved(uint256)": {
        "details": "See {IERC721-getApproved}."
      },
      "isApprovedForAll(address,address)": {
        "details": "See {IERC721-isApprovedForAll}."
      },
      "name()": {
        "details": "See {IERC721Metadata-name}."
      },
      "ownerOf(uint256)": {
        "details": "See {IERC721-ownerOf}."
      },
      "safeTransferFrom(address,address,uint256)": {
        "details": "See {IERC721-safeTransferFrom}."
      },
      "safeTransferFrom(address,address,uint256,bytes)": {
        "details": "See {IERC721-safeTransferFrom}."
      },
      "setApprovalForAll(address,bool)": {
        "details": "See {IERC721-setApprovalForAll}."
      },
      "supportsInterface(bytes4)": {
        "details": "See {IERC165-supportsInterface}. Time complexity O(1), guaranteed to always use less than 30 000 gas."
      },
      "symbol()": {
        "details": "See {IERC721Metadata-symbol}."
      },
      "tokenByIndex(uint256)": {
        "details": "See {IERC721Enumerable-tokenByIndex}."
      },
      "tokenOfOwnerByIndex(address,uint256)": {
        "details": "See {IERC721Enumerable-tokenOfOwnerByIndex}."
      },
      "tokenURI(uint256)": {
        "details": "See {IERC721Metadata-tokenURI}."
      },
      "totalSupply()": {
        "details": "See {IERC721Enumerable-totalSupply}."
      },
      "transferFrom(address,address,uint256)": {
        "details": "See {IERC721-transferFrom}."
      }
    },
    "version": 1
  },
  "userdoc": {
    "kind": "user",
    "methods": {},
    "version": 1
  }
}