{
  "contractName": "StoryInteractionFactory",
  "abi": [
    {
      "inputs": [
        {
          "internalType": "string",
          "name": "_name",
          "type": "string"
        },
        {
          "internalType": "string",
          "name": "_symbol",
          "type": "string"
        }
      ],
      "stateMutability": "nonpayable",
      "type": "constructor"
    },
    {
      "anonymous": false,
      "inputs": [
        {
          "indexed": true,
          "internalType": "address",
          "name": "owner",
          "type": "address"
        },
        {
          "indexed": true,
          "internalType": "address",
          "name": "approved",
          "type": "address"
        },
        {
          "indexed": true,
          "internalType": "uint256",
          "name": "tokenId",
          "type": "uint256"
        }
      ],
      "name": "Approval",
      "type": "event"
    },
    {
      "anonymous": false,
      "inputs": [
        {
          "indexed": true,
          "internalType": "address",
          "name": "owner",
          "type": "address"
        },
        {
          "indexed": true,
          "internalType": "address",
          "name": "operator",
          "type": "address"
        },
        {
          "indexed": false,
          "internalType": "bool",
          "name": "approved",
          "type": "bool"
        }
      ],
      "name": "ApprovalForAll",
      "type": "event"
    },
    {
      "anonymous": false,
      "inputs": [
        {
          "indexed": false,
          "internalType": "uint256",
          "name": "tokenId",
          "type": "uint256"
        },
        {
          "indexed": false,
          "internalType": "address",
          "name": "interactionCreator",
          "type": "address"
        },
        {
          "indexed": false,
          "internalType": "string",
          "name": "props",
          "type": "string"
        },
        {
          "indexed": false,
          "internalType": "uint256",
          "name": "storyTokenId",
          "type": "uint256"
        }
      ],
      "name": "StoryInteractionCreated",
      "type": "event"
    },
    {
      "anonymous": false,
      "inputs": [
        {
          "indexed": true,
          "internalType": "address",
          "name": "from",
          "type": "address"
        },
        {
          "indexed": true,
          "internalType": "address",
          "name": "to",
          "type": "address"
        },
        {
          "indexed": true,
          "internalType": "uint256",
          "name": "tokenId",
          "type": "uint256"
        }
      ],
      "name": "Transfer",
      "type": "event"
    },
    {
      "inputs": [
        {
          "internalType": "address",
          "name": "to",
          "type": "address"
        },
        {
          "internalType": "uint256",
          "name": "tokenId",
          "type": "uint256"
        }
      ],
      "name": "approve",
      "outputs": [],
      "stateMutability": "nonpayable",
      "type": "function"
    },
    {
      "inputs": [
        {
          "internalType": "address",
          "name": "owner",
          "type": "address"
        }
      ],
      "name": "balanceOf",
      "outputs": [
        {
          "internalType": "uint256",
          "name": "",
          "type": "uint256"
        }
      ],
      "stateMutability": "view",
      "type": "function",
      "constant": true
    },
    {
      "inputs": [],
      "name": "baseURI",
      "outputs": [
        {
          "internalType": "string",
          "name": "",
          "type": "string"
        }
      ],
      "stateMutability": "view",
      "type": "function",
      "constant": true
    },
    {
      "inputs": [
        {
          "internalType": "uint256",
          "name": "tokenId",
          "type": "uint256"
        }
      ],
      "name": "getApproved",
      "outputs": [
        {
          "internalType": "address",
          "name": "",
          "type": "address"
        }
      ],
      "stateMutability": "view",
      "type": "function",
      "constant": true
    },
    {
      "inputs": [
        {
          "internalType": "uint256",
          "name": "",
          "type": "uint256"
        }
      ],
      "name": "interactions",
      "outputs": [
        {
          "internalType": "address",
          "name": "creator",
          "type": "address"
        },
        {
          "internalType": "string",
          "name": "props",
          "type": "string"
        }
      ],
      "stateMutability": "view",
      "type": "function",
      "constant": true
    },
    {
      "inputs": [
        {
          "internalType": "address",
          "name": "owner",
          "type": "address"
        },
        {
          "internalType": "address",
          "name": "operator",
          "type": "address"
        }
      ],
      "name": "isApprovedForAll",
      "outputs": [
        {
          "internalType": "bool",
          "name": "",
          "type": "bool"
        }
      ],
      "stateMutability": "view",
      "type": "function",
      "constant": true
    },
    {
      "inputs": [],
      "name": "name",
      "outputs": [
        {
          "internalType": "string",
          "name": "",
          "type": "string"
        }
      ],
      "stateMutability": "view",
      "type": "function",
      "constant": true
    },
    {
      "inputs": [
        {
          "internalType": "uint256",
          "name": "tokenId",
          "type": "uint256"
        }
      ],
      "name": "ownerOf",
      "outputs": [
        {
          "internalType": "address",
          "name": "",
          "type": "address"
        }
      ],
      "stateMutability": "view",
      "type": "function",
      "constant": true
    },
    {
      "inputs": [
        {
          "internalType": "address",
          "name": "from",
          "type": "address"
        },
        {
          "internalType": "address",
          "name": "to",
          "type": "address"
        },
        {
          "internalType": "uint256",
          "name": "tokenId",
          "type": "uint256"
        }
      ],
      "name": "safeTransferFrom",
      "outputs": [],
      "stateMutability": "nonpayable",
      "type": "function"
    },
    {
      "inputs": [
        {
          "internalType": "address",
          "name": "from",
          "type": "address"
        },
        {
          "internalType": "address",
          "name": "to",
          "type": "address"
        },
        {
          "internalType": "uint256",
          "name": "tokenId",
          "type": "uint256"
        },
        {
          "internalType": "bytes",
          "name": "_data",
          "type": "bytes"
        }
      ],
      "name": "safeTransferFrom",
      "outputs": [],
      "stateMutability": "nonpayable",
      "type": "function"
    },
    {
      "inputs": [
        {
          "internalType": "address",
          "name": "operator",
          "type": "address"
        },
        {
          "internalType": "bool",
          "name": "approved",
          "type": "bool"
        }
      ],
      "name": "setApprovalForAll",
      "outputs": [],
      "stateMutability": "nonpayable",
      "type": "function"
    },
    {
      "inputs": [
        {
          "internalType": "uint256",
          "name": "",
          "type": "uint256"
        },
        {
          "internalType": "uint256",
          "name": "",
          "type": "uint256"
        }
      ],
      "name": "storyInteractions",
      "outputs": [
        {
          "internalType": "uint256",
          "name": "",
          "type": "uint256"
        }
      ],
      "stateMutability": "view",
      "type": "function",
      "constant": true
    },
    {
      "inputs": [
        {
          "internalType": "bytes4",
          "name": "interfaceId",
          "type": "bytes4"
        }
      ],
      "name": "supportsInterface",
      "outputs": [
        {
          "internalType": "bool",
          "name": "",
          "type": "bool"
        }
      ],
      "stateMutability": "view",
      "type": "function",
      "constant": true
    },
    {
      "inputs": [],
      "name": "symbol",
      "outputs": [
        {
          "internalType": "string",
          "name": "",
          "type": "string"
        }
      ],
      "stateMutability": "view",
      "type": "function",
      "constant": true
    },
    {
      "inputs": [
        {
          "internalType": "uint256",
          "name": "index",
          "type": "uint256"
        }
      ],
      "name": "tokenByIndex",
      "outputs": [
        {
          "internalType": "uint256",
          "name": "",
          "type": "uint256"
        }
      ],
      "stateMutability": "view",
      "type": "function",
      "constant": true
    },
    {
      "inputs": [
        {
          "internalType": "address",
          "name": "owner",
          "type": "address"
        },
        {
          "internalType": "uint256",
          "name": "index",
          "type": "uint256"
        }
      ],
      "name": "tokenOfOwnerByIndex",
      "outputs": [
        {
          "internalType": "uint256",
          "name": "",
          "type": "uint256"
        }
      ],
      "stateMutability": "view",
      "type": "function",
      "constant": true
    },
    {
      "inputs": [
        {
          "internalType": "uint256",
          "name": "tokenId",
          "type": "uint256"
        }
      ],
      "name": "tokenURI",
      "outputs": [
        {
          "internalType": "string",
          "name": "",
          "type": "string"
        }
      ],
      "stateMutability": "view",
      "type": "function",
      "constant": true
    },
    {
      "inputs": [],
      "name": "totalSupply",
      "outputs": [
        {
          "internalType": "uint256",
          "name": "",
          "type": "uint256"
        }
      ],
      "stateMutability": "view",
      "type": "function",
      "constant": true
    },
    {
      "inputs": [
        {
          "internalType": "address",
          "name": "from",
          "type": "address"
        },
        {
          "internalType": "address",
          "name": "to",
          "type": "address"
        },
        {
          "internalType": "uint256",
          "name": "tokenId",
          "type": "uint256"
        }
      ],
      "name": "transferFrom",
      "outputs": [],
      "stateMutability": "nonpayable",
      "type": "function"
    },
    {
      "inputs": [
        {
          "internalType": "string",
          "name": "_props",
          "type": "string"
        },
        {
          "internalType": "uint256",
          "name": "_storyTokenId",
          "type": "uint256"
        }
      ],
      "name": "createStoryInteraction",
      "outputs": [
        {
          "internalType": "uint256",
          "name": "",
          "type": "uint256"
        }
      ],
      "stateMutability": "payable",
      "type": "function",
      "payable": true
    },
    {
      "inputs": [
        {
          "internalType": "uint256",
          "name": "_storyTokenId",
          "type": "uint256"
        }
      ],
      "name": "getStoryInteractions",
      "outputs": [
        {
          "internalType": "uint256[]",
          "name": "",
          "type": "uint256[]"
        }
      ],
      "stateMutability": "view",
      "type": "function",
      "constant": true
    }
  ],
  "bytecode": "0x60806040523480156200001157600080fd5b50604051620035f4380380620035f4833981810160405260408110156200003757600080fd5b81019080805160405193929190846401000000008211156200005857600080fd5b838201915060208201858111156200006f57600080fd5b82518660018202830111640100000000821117156200008d57600080fd5b8083526020830192505050908051906020019080838360005b83811015620000c3578082015181840152602081019050620000a6565b50505050905090810190601f168015620000f15780820380516001836020036101000a031916815260200191505b50604052602001805160405193929190846401000000008211156200011557600080fd5b838201915060208201858111156200012c57600080fd5b82518660018202830111640100000000821117156200014a57600080fd5b8083526020830192505050908051906020019080838360005b838110156200018057808201518184015260208101905062000163565b50505050905090810190601f168015620001ae5780820380516001836020036101000a031916815260200191505b506040525050508181620001cf6301ffc9a760e01b6200025360201b60201c565b8160069080519060200190620001e79291906200035c565b508060079080519060200190620002009291906200035c565b50620002196380ac58cd60e01b6200025360201b60201c565b62000231635b5e139f60e01b6200025360201b60201c565b6200024963780e9d6360e01b6200025360201b60201c565b5050505062000402565b63ffffffff60e01b817bffffffffffffffffffffffffffffffffffffffffffffffffffffffff19161415620002f0576040517f08c379a000000000000000000000000000000000000000000000000000000000815260040180806020018281038252601c8152602001807f4552433136353a20696e76616c696420696e746572666163652069640000000081525060200191505060405180910390fd5b6001600080837bffffffffffffffffffffffffffffffffffffffffffffffffffffffff19167bffffffffffffffffffffffffffffffffffffffffffffffffffffffff1916815260200190815260200160002060006101000a81548160ff02191690831515021790555050565b828054600181600116156101000203166002900490600052602060002090601f016020900481019282601f106200039f57805160ff1916838001178555620003d0565b82800160010185558215620003d0579182015b82811115620003cf578251825591602001919060010190620003b2565b5b509050620003df9190620003e3565b5090565b5b80821115620003fe576000816000905550600101620003e4565b5090565b6131e280620004126000396000f3fe60806040526004361061012a5760003560e01c80634f6ccce7116100ab57806395d89b411161006f57806395d89b41146107e9578063a22cb46514610879578063b88d4fde146108d6578063c87b56dd146109e8578063e9383fa214610a9c578063e985e9c514610b2c5761012a565b80634f6ccce7146105a95780636352211e146105f85780636c0360eb1461065d57806370a08231146106ed578063752244fd146107525761012a565b806318160ddd116100f257806318160ddd146103c057806323b872dd146103eb5780632af60ac0146104665780632f745c59146104bf57806342842e0e1461052e5761012a565b806301ffc9a71461012f57806306fdde031461019f578063081812fc1461022f578063095ea7b3146102945780630ba460ff146102ef575b600080fd5b34801561013b57600080fd5b506101876004803603602081101561015257600080fd5b8101908080357bffffffffffffffffffffffffffffffffffffffffffffffffffffffff19169060200190929190505050610bb3565b60405180821515815260200191505060405180910390f35b3480156101ab57600080fd5b506101b4610c1a565b6040518080602001828103825283818151815260200191508051906020019080838360005b838110156101f45780820151818401526020810190506101d9565b50505050905090810190601f1680156102215780820380516001836020036101000a031916815260200191505b509250505060405180910390f35b34801561023b57600080fd5b506102686004803603602081101561025257600080fd5b8101908080359060200190929190505050610cbc565b604051808273ffffffffffffffffffffffffffffffffffffffff16815260200191505060405180910390f35b3480156102a057600080fd5b506102ed600480360360408110156102b757600080fd5b81019080803573ffffffffffffffffffffffffffffffffffffffff16906020019092919080359060200190929190505050610d57565b005b3480156102fb57600080fd5b506103286004803603602081101561031257600080fd5b8101908080359060200190929190505050610e9b565b604051808373ffffffffffffffffffffffffffffffffffffffff16815260200180602001828103825283818151815260200191508051906020019080838360005b83811015610384578082015181840152602081019050610369565b50505050905090810190601f1680156103b15780820380516001836020036101000a031916815260200191505b50935050505060405180910390f35b3480156103cc57600080fd5b506103d5610f84565b6040518082815260200191505060405180910390f35b3480156103f757600080fd5b506104646004803603606081101561040e57600080fd5b81019080803573ffffffffffffffffffffffffffffffffffffffff169060200190929190803573ffffffffffffffffffffffffffffffffffffffff16906020019092919080359060200190929190505050610f95565b005b34801561047257600080fd5b506104a96004803603604081101561048957600080fd5b81019080803590602001909291908035906020019092919050505061100b565b6040518082815260200191505060405180910390f35b3480156104cb57600080fd5b50610518600480360360408110156104e257600080fd5b81019080803573ffffffffffffffffffffffffffffffffffffffff16906020019092919080359060200190929190505050611039565b6040518082815260200191505060405180910390f35b34801561053a57600080fd5b506105a76004803603606081101561055157600080fd5b81019080803573ffffffffffffffffffffffffffffffffffffffff169060200190929190803573ffffffffffffffffffffffffffffffffffffffff16906020019092919080359060200190929190505050611094565b005b3480156105b557600080fd5b506105e2600480360360208110156105cc57600080fd5b81019080803590602001909291905050506110b4565b6040518082815260200191505060405180910390f35b34801561060457600080fd5b506106316004803603602081101561061b57600080fd5b81019080803590602001909291905050506110d7565b604051808273ffffffffffffffffffffffffffffffffffffffff16815260200191505060405180910390f35b34801561066957600080fd5b5061067261110e565b6040518080602001828103825283818151815260200191508051906020019080838360005b838110156106b2578082015181840152602081019050610697565b50505050905090810190601f1680156106df5780820380516001836020036101000a031916815260200191505b509250505060405180910390f35b3480156106f957600080fd5b5061073c6004803603602081101561071057600080fd5b81019080803573ffffffffffffffffffffffffffffffffffffffff1690602001909291905050506111b0565b6040518082815260200191505060405180910390f35b6107d36004803603604081101561076857600080fd5b810190808035906020019064010000000081111561078557600080fd5b82018360208201111561079757600080fd5b803590602001918460018302840111640100000000831117156107b957600080fd5b909192939192939080359060200190929190505050611285565b6040518082815260200191505060405180910390f35b3480156107f557600080fd5b506107fe6114d8565b6040518080602001828103825283818151815260200191508051906020019080838360005b8381101561083e578082015181840152602081019050610823565b50505050905090810190601f16801561086b5780820380516001836020036101000a031916815260200191505b509250505060405180910390f35b34801561088557600080fd5b506108d46004803603604081101561089c57600080fd5b81019080803573ffffffffffffffffffffffffffffffffffffffff16906020019092919080351515906020019092919050505061157a565b005b3480156108e257600080fd5b506109e6600480360360808110156108f957600080fd5b81019080803573ffffffffffffffffffffffffffffffffffffffff169060200190929190803573ffffffffffffffffffffffffffffffffffffffff169060200190929190803590602001909291908035906020019064010000000081111561096057600080fd5b82018360208201111561097257600080fd5b8035906020019184600183028401116401000000008311171561099457600080fd5b91908080601f016020809104026020016040519081016040528093929190818152602001838380828437600081840152601f19601f820116905080830192505050505050509192919290505050611730565b005b3480156109f457600080fd5b50610a2160048036036020811015610a0b57600080fd5b81019080803590602001909291905050506117a8565b6040518080602001828103825283818151815260200191508051906020019080838360005b83811015610a61578082015181840152602081019050610a46565b50505050905090810190601f168015610a8e5780820380516001836020036101000a031916815260200191505b509250505060405180910390f35b348015610aa857600080fd5b50610ad560048036036020811015610abf57600080fd5b8101908080359060200190929190505050611a79565b6040518080602001828103825283818151815260200191508051906020019060200280838360005b83811015610b18578082015181840152602081019050610afd565b505050509050019250505060405180910390f35b348015610b3857600080fd5b50610b9b60048036036040811015610b4f57600080fd5b81019080803573ffffffffffffffffffffffffffffffffffffffff169060200190929190803573ffffffffffffffffffffffffffffffffffffffff169060200190929190505050611ae4565b60405180821515815260200191505060405180910390f35b6000806000837bffffffffffffffffffffffffffffffffffffffffffffffffffffffff19167bffffffffffffffffffffffffffffffffffffffffffffffffffffffff1916815260200190815260200160002060009054906101000a900460ff169050919050565b606060068054600181600116156101000203166002900480601f016020809104026020016040519081016040528092919081815260200182805460018160011615610100020316600290048015610cb25780601f10610c8757610100808354040283529160200191610cb2565b820191906000526020600020905b815481529060010190602001808311610c9557829003601f168201915b5050505050905090565b6000610cc782611b78565b610d1c576040517f08c379a000000000000000000000000000000000000000000000000000000000815260040180806020018281038252602c8152602001806130ab602c913960400191505060405180910390fd5b6004600083815260200190815260200160002060009054906101000a900473ffffffffffffffffffffffffffffffffffffffff169050919050565b6000610d62826110d7565b90508073ffffffffffffffffffffffffffffffffffffffff168373ffffffffffffffffffffffffffffffffffffffff161415610de9576040517f08c379a000000000000000000000000000000000000000000000000000000000815260040180806020018281038252602181526020018061315b6021913960400191505060405180910390fd5b8073ffffffffffffffffffffffffffffffffffffffff16610e08611b95565b73ffffffffffffffffffffffffffffffffffffffff161480610e375750610e3681610e31611b95565b611ae4565b5b610e8c576040517f08c379a0000000000000000000000000000000000000000000000000000000008152600401808060200182810382526038815260200180612ffe6038913960400191505060405180910390fd5b610e968383611b9d565b505050565b600b8181548110610ea857fe5b90600052602060002090600202016000915090508060000160009054906101000a900473ffffffffffffffffffffffffffffffffffffffff1690806001018054600181600116156101000203166002900480601f016020809104026020016040519081016040528092919081815260200182805460018160011615610100020316600290048015610f7a5780601f10610f4f57610100808354040283529160200191610f7a565b820191906000526020600020905b815481529060010190602001808311610f5d57829003601f168201915b5050505050905082565b6000610f906002611c56565b905090565b610fa6610fa0611b95565b82611c6b565b610ffb576040517f08c379a000000000000000000000000000000000000000000000000000000000815260040180806020018281038252603181526020018061317c6031913960400191505060405180910390fd5b611006838383611d5f565b505050565b600c602052816000526040600020818154811061102457fe5b90600052602060002001600091509150505481565b600061108c82600160008673ffffffffffffffffffffffffffffffffffffffff1673ffffffffffffffffffffffffffffffffffffffff168152602001908152602001600020611fa290919063ffffffff16565b905092915050565b6110af83838360405180602001604052806000815250611730565b505050565b6000806110cb836002611fbc90919063ffffffff16565b50905080915050919050565b600061110782604051806060016040528060298152602001613060602991396002611fe89092919063ffffffff16565b9050919050565b606060098054600181600116156101000203166002900480601f0160208091040260200160405190810160405280929190818152602001828054600181600116156101000203166002900480156111a65780601f1061117b576101008083540402835291602001916111a6565b820191906000526020600020905b81548152906001019060200180831161118957829003601f168201915b5050505050905090565b60008073ffffffffffffffffffffffffffffffffffffffff168273ffffffffffffffffffffffffffffffffffffffff161415611237576040517f08c379a000000000000000000000000000000000000000000000000000000000815260040180806020018281038252602a815260200180613036602a913960400191505060405180910390fd5b61127e600160008473ffffffffffffffffffffffffffffffffffffffff1673ffffffffffffffffffffffffffffffffffffffff168152602001908152602001600020612007565b9050919050565b600080611292600a61201c565b905061129e338261202a565b6112ec8186868080601f016020809104026020016040519081016040528093929190818152602001838380828437600081840152601f19601f8201169050808301925050505050505061221e565b6112f6600a6122a8565b6112fe612e66565b60405180604001604052803373ffffffffffffffffffffffffffffffffffffffff16815260200187878080601f016020809104026020016040519081016040528093929190818152602001838380828437600081840152601f19601f820116905080830192505050505050508152509050600b81908060018154018082558091505060019003906000526020600020906002020160009091909190915060008201518160000160006101000a81548173ffffffffffffffffffffffffffffffffffffffff021916908373ffffffffffffffffffffffffffffffffffffffff16021790555060208201518160010190805190602001906113fe929190612e96565b505050600c60008581526020019081526020016000208290806001815401808255809150506001900390600052602060002001600090919091909150557ffa7281b164d88c68f60b09150cfba5abd3307ee4ece1dafdfbb23ccd0d98da2c8233888888604051808681526020018573ffffffffffffffffffffffffffffffffffffffff168152602001806020018381526020018281038252858582818152602001925080828437600081840152601f19601f820116905080830192505050965050505050505060405180910390a181925050509392505050565b606060078054600181600116156101000203166002900480601f0160208091040260200160405190810160405280929190818152602001828054600181600116156101000203166002900480156115705780601f1061154557610100808354040283529160200191611570565b820191906000526020600020905b81548152906001019060200180831161155357829003601f168201915b5050505050905090565b611582611b95565b73ffffffffffffffffffffffffffffffffffffffff168273ffffffffffffffffffffffffffffffffffffffff161415611623576040517f08c379a00000000000000000000000000000000000000000000000000000000081526004018080602001828103825260198152602001807f4552433732313a20617070726f766520746f2063616c6c65720000000000000081525060200191505060405180910390fd5b8060056000611630611b95565b73ffffffffffffffffffffffffffffffffffffffff1673ffffffffffffffffffffffffffffffffffffffff16815260200190815260200160002060008473ffffffffffffffffffffffffffffffffffffffff1673ffffffffffffffffffffffffffffffffffffffff16815260200190815260200160002060006101000a81548160ff0219169083151502179055508173ffffffffffffffffffffffffffffffffffffffff166116dd611b95565b73ffffffffffffffffffffffffffffffffffffffff167f17307eab39ab6107e8899845ad3d59bd9653f200f220920489ca2b5937696c318360405180821515815260200191505060405180910390a35050565b61174161173b611b95565b83611c6b565b611796576040517f08c379a000000000000000000000000000000000000000000000000000000000815260040180806020018281038252603181526020018061317c6031913960400191505060405180910390fd5b6117a2848484846122be565b50505050565b60606117b382611b78565b611808576040517f08c379a000000000000000000000000000000000000000000000000000000000815260040180806020018281038252602f81526020018061312c602f913960400191505060405180910390fd5b6060600860008481526020019081526020016000208054600181600116156101000203166002900480601f0160208091040260200160405190810160405280929190818152602001828054600181600116156101000203166002900480156118b15780601f10611886576101008083540402835291602001916118b1565b820191906000526020600020905b81548152906001019060200180831161189457829003601f168201915b5050505050905060606118c261110e565b90506000815114156118d8578192505050611a74565b6000825111156119a95780826040516020018083805190602001908083835b6020831061191a57805182526020820191506020810190506020830392506118f7565b6001836020036101000a03801982511681845116808217855250505050505090500182805190602001908083835b6020831061196b5780518252602082019150602081019050602083039250611948565b6001836020036101000a0380198251168184511680821785525050505050509050019250505060405160208183030381529060405292505050611a74565b806119b385612330565b6040516020018083805190602001908083835b602083106119e957805182526020820191506020810190506020830392506119c6565b6001836020036101000a03801982511681845116808217855250505050505090500182805190602001908083835b60208310611a3a5780518252602082019150602081019050602083039250611a17565b6001836020036101000a03801982511681845116808217855250505050505090500192505050604051602081830303815290604052925050505b919050565b6060600c6000838152602001908152602001600020805480602002602001604051908101604052809291908181526020018280548015611ad857602002820191906000526020600020905b815481526020019060010190808311611ac4575b50505050509050919050565b6000600560008473ffffffffffffffffffffffffffffffffffffffff1673ffffffffffffffffffffffffffffffffffffffff16815260200190815260200160002060008373ffffffffffffffffffffffffffffffffffffffff1673ffffffffffffffffffffffffffffffffffffffff16815260200190815260200160002060009054906101000a900460ff16905092915050565b6000611b8e82600261247790919063ffffffff16565b9050919050565b600033905090565b816004600083815260200190815260200160002060006101000a81548173ffffffffffffffffffffffffffffffffffffffff021916908373ffffffffffffffffffffffffffffffffffffffff160217905550808273ffffffffffffffffffffffffffffffffffffffff16611c10836110d7565b73ffffffffffffffffffffffffffffffffffffffff167f8c5be1e5ebec7d5bd14f71427d1e84f3dd0314c0f7b2291e5b200ac8c7c3b92560405160405180910390a45050565b6000611c6482600001612491565b9050919050565b6000611c7682611b78565b611ccb576040517f08c379a000000000000000000000000000000000000000000000000000000000815260040180806020018281038252602c815260200180612fd2602c913960400191505060405180910390fd5b6000611cd6836110d7565b90508073ffffffffffffffffffffffffffffffffffffffff168473ffffffffffffffffffffffffffffffffffffffff161480611d4557508373ffffffffffffffffffffffffffffffffffffffff16611d2d84610cbc565b73ffffffffffffffffffffffffffffffffffffffff16145b80611d565750611d558185611ae4565b5b91505092915050565b8273ffffffffffffffffffffffffffffffffffffffff16611d7f826110d7565b73ffffffffffffffffffffffffffffffffffffffff1614611deb576040517f08c379a00000000000000000000000000000000000000000000000000000000081526004018080602001828103825260298152602001806131036029913960400191505060405180910390fd5b600073ffffffffffffffffffffffffffffffffffffffff168273ffffffffffffffffffffffffffffffffffffffff161415611e71576040517f08c379a0000000000000000000000000000000000000000000000000000000008152600401808060200182810382526024815260200180612f886024913960400191505060405180910390fd5b611e7c8383836124a2565b611e87600082611b9d565b611ed881600160008673ffffffffffffffffffffffffffffffffffffffff1673ffffffffffffffffffffffffffffffffffffffff1681526020019081526020016000206124a790919063ffffffff16565b50611f2a81600160008573ffffffffffffffffffffffffffffffffffffffff1673ffffffffffffffffffffffffffffffffffffffff1681526020019081526020016000206124c190919063ffffffff16565b50611f41818360026124db9092919063ffffffff16565b50808273ffffffffffffffffffffffffffffffffffffffff168473ffffffffffffffffffffffffffffffffffffffff167fddf252ad1be2c89b69c2b068fc378daa952ba7f163c4a11628f55a4df523b3ef60405160405180910390a4505050565b6000611fb18360000183612510565b60001c905092915050565b600080600080611fcf8660000186612593565b915091508160001c8160001c9350935050509250929050565b6000611ffb846000018460001b8461262c565b60001c90509392505050565b600061201582600001612722565b9050919050565b600081600001549050919050565b600073ffffffffffffffffffffffffffffffffffffffff168273ffffffffffffffffffffffffffffffffffffffff1614156120cd576040517f08c379a00000000000000000000000000000000000000000000000000000000081526004018080602001828103825260208152602001807f4552433732313a206d696e7420746f20746865207a65726f206164647265737381525060200191505060405180910390fd5b6120d681611b78565b15612149576040517f08c379a000000000000000000000000000000000000000000000000000000000815260040180806020018281038252601c8152602001807f4552433732313a20746f6b656e20616c7265616479206d696e7465640000000081525060200191505060405180910390fd5b612155600083836124a2565b6121a681600160008573ffffffffffffffffffffffffffffffffffffffff1673ffffffffffffffffffffffffffffffffffffffff1681526020019081526020016000206124c190919063ffffffff16565b506121bd818360026124db9092919063ffffffff16565b50808273ffffffffffffffffffffffffffffffffffffffff16600073ffffffffffffffffffffffffffffffffffffffff167fddf252ad1be2c89b69c2b068fc378daa952ba7f163c4a11628f55a4df523b3ef60405160405180910390a45050565b61222782611b78565b61227c576040517f08c379a000000000000000000000000000000000000000000000000000000000815260040180806020018281038252602c8152602001806130d7602c913960400191505060405180910390fd5b806008600084815260200190815260200160002090805190602001906122a3929190612e96565b505050565b6001816000016000828254019250508190555050565b6122c9848484611d5f565b6122d584848484612733565b61232a576040517f08c379a0000000000000000000000000000000000000000000000000000000008152600401808060200182810382526032815260200180612f566032913960400191505060405180910390fd5b50505050565b60606000821415612378576040518060400160405280600181526020017f30000000000000000000000000000000000000000000000000000000000000008152509050612472565b600082905060005b600082146123a2578080600101915050600a828161239a57fe5b049150612380565b60608167ffffffffffffffff811180156123bb57600080fd5b506040519080825280601f01601f1916602001820160405280156123ee5781602001600182028036833780820191505090505b50905060006001830390508593505b6000841461246a57600a848161240f57fe5b0660300160f81b8282806001900393508151811061242957fe5b60200101907effffffffffffffffffffffffffffffffffffffffffffffffffffffffffffff1916908160001a905350600a848161246257fe5b0493506123fd565b819450505050505b919050565b6000612489836000018360001b61294c565b905092915050565b600081600001805490509050919050565b505050565b60006124b9836000018360001b61296f565b905092915050565b60006124d3836000018360001b612a57565b905092915050565b6000612507846000018460001b8473ffffffffffffffffffffffffffffffffffffffff1660001b612ac7565b90509392505050565b600081836000018054905011612571576040517f08c379a0000000000000000000000000000000000000000000000000000000008152600401808060200182810382526022815260200180612f346022913960400191505060405180910390fd5b82600001828154811061258057fe5b9060005260206000200154905092915050565b600080828460000180549050116125f5576040517f08c379a00000000000000000000000000000000000000000000000000000000081526004018080602001828103825260228152602001806130896022913960400191505060405180910390fd5b600084600001848154811061260657fe5b906000526020600020906002020190508060000154816001015492509250509250929050565b600080846001016000858152602001908152602001600020549050600081141583906126f3576040517f08c379a00000000000000000000000000000000000000000000000000000000081526004018080602001828103825283818151815260200191508051906020019080838360005b838110156126b857808201518184015260208101905061269d565b50505050905090810190601f1680156126e55780820380516001836020036101000a031916815260200191505b509250505060405180910390fd5b5084600001600182038154811061270657fe5b9060005260206000209060020201600101549150509392505050565b600081600001805490509050919050565b60006127548473ffffffffffffffffffffffffffffffffffffffff16612ba3565b6127615760019050612944565b60606128cb63150b7a0260e01b612776611b95565b888787604051602401808573ffffffffffffffffffffffffffffffffffffffff1681526020018473ffffffffffffffffffffffffffffffffffffffff16815260200183815260200180602001828103825283818151815260200191508051906020019080838360005b838110156127fa5780820151818401526020810190506127df565b50505050905090810190601f1680156128275780820380516001836020036101000a031916815260200191505b5095505050505050604051602081830303815290604052907bffffffffffffffffffffffffffffffffffffffffffffffffffffffff19166020820180517bffffffffffffffffffffffffffffffffffffffffffffffffffffffff8381831617835250505050604051806060016040528060328152602001612f56603291398773ffffffffffffffffffffffffffffffffffffffff16612bb69092919063ffffffff16565b905060008180602001905160208110156128e457600080fd5b8101908080519060200190929190505050905063150b7a0260e01b7bffffffffffffffffffffffffffffffffffffffffffffffffffffffff1916817bffffffffffffffffffffffffffffffffffffffffffffffffffffffff191614925050505b949350505050565b600080836001016000848152602001908152602001600020541415905092915050565b60008083600101600084815260200190815260200160002054905060008114612a4b57600060018203905060006001866000018054905003905060008660000182815481106129ba57fe5b90600052602060002001549050808760000184815481106129d757fe5b9060005260206000200181905550600183018760010160008381526020019081526020016000208190555086600001805480612a0f57fe5b60019003818190600052602060002001600090559055866001016000878152602001908152602001600020600090556001945050505050612a51565b60009150505b92915050565b6000612a638383612bce565b612abc578260000182908060018154018082558091505060019003906000526020600020016000909190919091505582600001805490508360010160008481526020019081526020016000208190555060019050612ac1565b600090505b92915050565b6000808460010160008581526020019081526020016000205490506000811415612b6e57846000016040518060400160405280868152602001858152509080600181540180825580915050600190039060005260206000209060020201600090919091909150600082015181600001556020820151816001015550508460000180549050856001016000868152602001908152602001600020819055506001915050612b9c565b82856000016001830381548110612b8157fe5b90600052602060002090600202016001018190555060009150505b9392505050565b600080823b905060008111915050919050565b6060612bc58484600085612bf1565b90509392505050565b600080836001016000848152602001908152602001600020541415905092915050565b606082471015612c4c576040517f08c379a0000000000000000000000000000000000000000000000000000000008152600401808060200182810382526026815260200180612fac6026913960400191505060405180910390fd5b612c5585612ba3565b612cc7576040517f08c379a000000000000000000000000000000000000000000000000000000000815260040180806020018281038252601d8152602001807f416464726573733a2063616c6c20746f206e6f6e2d636f6e747261637400000081525060200191505060405180910390fd5b600060608673ffffffffffffffffffffffffffffffffffffffff1685876040518082805190602001908083835b60208310612d175780518252602082019150602081019050602083039250612cf4565b6001836020036101000a03801982511681845116808217855250505050505090500191505060006040518083038185875af1925050503d8060008114612d79576040519150601f19603f3d011682016040523d82523d6000602084013e612d7e565b606091505b5091509150612d8e828286612d9a565b92505050949350505050565b60608315612daa57829050612e5f565b600083511115612dbd5782518084602001fd5b816040517f08c379a00000000000000000000000000000000000000000000000000000000081526004018080602001828103825283818151815260200191508051906020019080838360005b83811015612e24578082015181840152602081019050612e09565b50505050905090810190601f168015612e515780820380516001836020036101000a031916815260200191505b509250505060405180910390fd5b9392505050565b6040518060400160405280600073ffffffffffffffffffffffffffffffffffffffff168152602001606081525090565b828054600181600116156101000203166002900490600052602060002090601f016020900481019282601f10612ed757805160ff1916838001178555612f05565b82800160010185558215612f05579182015b82811115612f04578251825591602001919060010190612ee9565b5b509050612f129190612f16565b5090565b5b80821115612f2f576000816000905550600101612f17565b509056fe456e756d657261626c655365743a20696e646578206f7574206f6620626f756e64734552433732313a207472616e7366657220746f206e6f6e20455243373231526563656976657220696d706c656d656e7465724552433732313a207472616e7366657220746f20746865207a65726f2061646472657373416464726573733a20696e73756666696369656e742062616c616e636520666f722063616c6c4552433732313a206f70657261746f7220717565727920666f72206e6f6e6578697374656e7420746f6b656e4552433732313a20617070726f76652063616c6c6572206973206e6f74206f776e6572206e6f7220617070726f76656420666f7220616c6c4552433732313a2062616c616e636520717565727920666f7220746865207a65726f20616464726573734552433732313a206f776e657220717565727920666f72206e6f6e6578697374656e7420746f6b656e456e756d657261626c654d61703a20696e646578206f7574206f6620626f756e64734552433732313a20617070726f76656420717565727920666f72206e6f6e6578697374656e7420746f6b656e4552433732314d657461646174613a2055524920736574206f66206e6f6e6578697374656e7420746f6b656e4552433732313a207472616e73666572206f6620746f6b656e2074686174206973206e6f74206f776e4552433732314d657461646174613a2055524920717565727920666f72206e6f6e6578697374656e7420746f6b656e4552433732313a20617070726f76616c20746f2063757272656e74206f776e65724552433732313a207472616e736665722063616c6c6572206973206e6f74206f776e6572206e6f7220617070726f766564a264697066735822122014b9759197339a727f22998bd85720728473958f48fb604472536ad05f5483e064736f6c63430007000033",
  "immutableReferences": {},
  "source": "pragma solidity ^0.7.0;\n\nimport \"@openzeppelin/contracts/token/ERC721/IERC721Metadata.sol\";\nimport \"@openzeppelin/contracts/token/ERC721/ERC721.sol\";\nimport \"@openzeppelin/contracts/utils/Counters.sol\";\nimport \"@openzeppelin/contracts/math/SafeMath.sol\";\n\ncontract StoryInteractionFactory is ERC721 {\n    using Counters for Counters.Counter;\n\n    Counters.Counter private tokenIds; // to keep track of the number of NFTs we have minted\n    Interaction[] public interactions;\n    mapping(uint256 => uint256[]) public storyInteractions;\n\n\n    struct Interaction {\n        address creator;\n        string props;\n    }\n\n    event StoryInteractionCreated(uint256 tokenId, address interactionCreator, string props, uint256 storyTokenId);\n\n    constructor(string memory _name, string memory _symbol)\n        public\n        ERC721(_name, _symbol)\n    {}\n\n    // this function is responsible for minting the story NFT\n    // it is the responsibility of the caller to pass the props json schema for ERC721Metadata (_props argument)\n    // _props must include 4 things:\n    // find the schema definition to conform to here: https://eips.ethereum.org/EIPS/eip-721\n    function createStoryInteraction(string calldata _props, uint256 _storyTokenId)\n        external\n        payable\n        returns (uint256)\n    {\n        uint256 newItemId = tokenIds.current();\n        _mint(msg.sender, newItemId);\n        _setTokenURI(newItemId, _props);\n        tokenIds.increment();\n\n        Interaction memory interaction =\n            Interaction({creator: msg.sender, props: _props});\n\n        \n        interactions.push(interaction);\n        storyInteractions[_storyTokenId].push(newItemId);\n\n        emit StoryInteractionCreated(newItemId, msg.sender, _props, _storyTokenId);\n\n        return newItemId;\n    }\n\n    function getStoryInteractions(uint256 _storyTokenId) \n    public\n    view\n    returns (uint256[] memory) {\n        return storyInteractions[_storyTokenId];\n    }\n}\n",
  "sourcePath": "/Users/migrenaa/Desktop/dev/non-zone/smart-contracts/non-zone-contracts/contracts/StoryInteractionFactory.sol",
  "compiler": {
    "name": "solc",
    "version": "0.7.0+commit.9e61f92b.Emscripten.clang"
  },
  "schemaVersion": "3.3.4",
  "updatedAt": "2021-03-17T15:58:06.884Z",
  "networkType": "ethereum",
  "devdoc": {
    "kind": "dev",
    "methods": {
      "approve(address,uint256)": {
        "details": "See {IERC721-approve}."
      },
      "balanceOf(address)": {
        "details": "See {IERC721-balanceOf}."
      },
      "baseURI()": {
        "details": "Returns the base URI set via {_setBaseURI}. This will be automatically added as a prefix in {tokenURI} to each token's URI, or to the token ID if no specific URI is set for that token ID."
      },
      "getApproved(uint256)": {
        "details": "See {IERC721-getApproved}."
      },
      "isApprovedForAll(address,address)": {
        "details": "See {IERC721-isApprovedForAll}."
      },
      "name()": {
        "details": "See {IERC721Metadata-name}."
      },
      "ownerOf(uint256)": {
        "details": "See {IERC721-ownerOf}."
      },
      "safeTransferFrom(address,address,uint256)": {
        "details": "See {IERC721-safeTransferFrom}."
      },
      "safeTransferFrom(address,address,uint256,bytes)": {
        "details": "See {IERC721-safeTransferFrom}."
      },
      "setApprovalForAll(address,bool)": {
        "details": "See {IERC721-setApprovalForAll}."
      },
      "supportsInterface(bytes4)": {
        "details": "See {IERC165-supportsInterface}. Time complexity O(1), guaranteed to always use less than 30 000 gas."
      },
      "symbol()": {
        "details": "See {IERC721Metadata-symbol}."
      },
      "tokenByIndex(uint256)": {
        "details": "See {IERC721Enumerable-tokenByIndex}."
      },
      "tokenOfOwnerByIndex(address,uint256)": {
        "details": "See {IERC721Enumerable-tokenOfOwnerByIndex}."
      },
      "tokenURI(uint256)": {
        "details": "See {IERC721Metadata-tokenURI}."
      },
      "totalSupply()": {
        "details": "See {IERC721Enumerable-totalSupply}."
      },
      "transferFrom(address,address,uint256)": {
        "details": "See {IERC721-transferFrom}."
      }
    },
    "version": 1
  },
  "userdoc": {
    "kind": "user",
    "methods": {},
    "version": 1
  }
}