{
  "contractName": "StoryFactory",
  "abi": [
    {
      "inputs": [
        {
          "internalType": "string",
          "name": "_name",
          "type": "string"
        },
        {
          "internalType": "string",
          "name": "_symbol",
          "type": "string"
        }
      ],
      "stateMutability": "nonpayable",
      "type": "constructor"
    },
    {
      "anonymous": false,
      "inputs": [
        {
          "indexed": true,
          "internalType": "address",
          "name": "owner",
          "type": "address"
        },
        {
          "indexed": true,
          "internalType": "address",
          "name": "approved",
          "type": "address"
        },
        {
          "indexed": true,
          "internalType": "uint256",
          "name": "tokenId",
          "type": "uint256"
        }
      ],
      "name": "Approval",
      "type": "event"
    },
    {
      "anonymous": false,
      "inputs": [
        {
          "indexed": true,
          "internalType": "address",
          "name": "owner",
          "type": "address"
        },
        {
          "indexed": true,
          "internalType": "address",
          "name": "operator",
          "type": "address"
        },
        {
          "indexed": false,
          "internalType": "bool",
          "name": "approved",
          "type": "bool"
        }
      ],
      "name": "ApprovalForAll",
      "type": "event"
    },
    {
      "anonymous": false,
      "inputs": [
        {
          "indexed": false,
          "internalType": "uint256",
          "name": "tokenId",
          "type": "uint256"
        },
        {
          "indexed": false,
          "internalType": "address",
          "name": "storyCreator",
          "type": "address"
        },
        {
          "indexed": false,
          "internalType": "string",
          "name": "props",
          "type": "string"
        }
      ],
      "name": "StoryCreated",
      "type": "event"
    },
    {
      "anonymous": false,
      "inputs": [
        {
          "indexed": true,
          "internalType": "address",
          "name": "from",
          "type": "address"
        },
        {
          "indexed": true,
          "internalType": "address",
          "name": "to",
          "type": "address"
        },
        {
          "indexed": true,
          "internalType": "uint256",
          "name": "tokenId",
          "type": "uint256"
        }
      ],
      "name": "Transfer",
      "type": "event"
    },
    {
      "inputs": [
        {
          "internalType": "address",
          "name": "to",
          "type": "address"
        },
        {
          "internalType": "uint256",
          "name": "tokenId",
          "type": "uint256"
        }
      ],
      "name": "approve",
      "outputs": [],
      "stateMutability": "nonpayable",
      "type": "function"
    },
    {
      "inputs": [
        {
          "internalType": "address",
          "name": "owner",
          "type": "address"
        }
      ],
      "name": "balanceOf",
      "outputs": [
        {
          "internalType": "uint256",
          "name": "",
          "type": "uint256"
        }
      ],
      "stateMutability": "view",
      "type": "function",
      "constant": true
    },
    {
      "inputs": [],
      "name": "baseURI",
      "outputs": [
        {
          "internalType": "string",
          "name": "",
          "type": "string"
        }
      ],
      "stateMutability": "view",
      "type": "function",
      "constant": true
    },
    {
      "inputs": [
        {
          "internalType": "uint256",
          "name": "tokenId",
          "type": "uint256"
        }
      ],
      "name": "getApproved",
      "outputs": [
        {
          "internalType": "address",
          "name": "",
          "type": "address"
        }
      ],
      "stateMutability": "view",
      "type": "function",
      "constant": true
    },
    {
      "inputs": [
        {
          "internalType": "address",
          "name": "owner",
          "type": "address"
        },
        {
          "internalType": "address",
          "name": "operator",
          "type": "address"
        }
      ],
      "name": "isApprovedForAll",
      "outputs": [
        {
          "internalType": "bool",
          "name": "",
          "type": "bool"
        }
      ],
      "stateMutability": "view",
      "type": "function",
      "constant": true
    },
    {
      "inputs": [],
      "name": "name",
      "outputs": [
        {
          "internalType": "string",
          "name": "",
          "type": "string"
        }
      ],
      "stateMutability": "view",
      "type": "function",
      "constant": true
    },
    {
      "inputs": [
        {
          "internalType": "uint256",
          "name": "tokenId",
          "type": "uint256"
        }
      ],
      "name": "ownerOf",
      "outputs": [
        {
          "internalType": "address",
          "name": "",
          "type": "address"
        }
      ],
      "stateMutability": "view",
      "type": "function",
      "constant": true
    },
    {
      "inputs": [
        {
          "internalType": "address",
          "name": "from",
          "type": "address"
        },
        {
          "internalType": "address",
          "name": "to",
          "type": "address"
        },
        {
          "internalType": "uint256",
          "name": "tokenId",
          "type": "uint256"
        }
      ],
      "name": "safeTransferFrom",
      "outputs": [],
      "stateMutability": "nonpayable",
      "type": "function"
    },
    {
      "inputs": [
        {
          "internalType": "address",
          "name": "from",
          "type": "address"
        },
        {
          "internalType": "address",
          "name": "to",
          "type": "address"
        },
        {
          "internalType": "uint256",
          "name": "tokenId",
          "type": "uint256"
        },
        {
          "internalType": "bytes",
          "name": "_data",
          "type": "bytes"
        }
      ],
      "name": "safeTransferFrom",
      "outputs": [],
      "stateMutability": "nonpayable",
      "type": "function"
    },
    {
      "inputs": [
        {
          "internalType": "address",
          "name": "operator",
          "type": "address"
        },
        {
          "internalType": "bool",
          "name": "approved",
          "type": "bool"
        }
      ],
      "name": "setApprovalForAll",
      "outputs": [],
      "stateMutability": "nonpayable",
      "type": "function"
    },
    {
      "inputs": [
        {
          "internalType": "uint256",
          "name": "",
          "type": "uint256"
        }
      ],
      "name": "stories",
      "outputs": [
        {
          "internalType": "address",
          "name": "creator",
          "type": "address"
        },
        {
          "internalType": "string",
          "name": "props",
          "type": "string"
        },
        {
          "internalType": "bool",
          "name": "isMemory",
          "type": "bool"
        }
      ],
      "stateMutability": "view",
      "type": "function",
      "constant": true
    },
    {
      "inputs": [
        {
          "internalType": "bytes4",
          "name": "interfaceId",
          "type": "bytes4"
        }
      ],
      "name": "supportsInterface",
      "outputs": [
        {
          "internalType": "bool",
          "name": "",
          "type": "bool"
        }
      ],
      "stateMutability": "view",
      "type": "function",
      "constant": true
    },
    {
      "inputs": [],
      "name": "symbol",
      "outputs": [
        {
          "internalType": "string",
          "name": "",
          "type": "string"
        }
      ],
      "stateMutability": "view",
      "type": "function",
      "constant": true
    },
    {
      "inputs": [
        {
          "internalType": "uint256",
          "name": "index",
          "type": "uint256"
        }
      ],
      "name": "tokenByIndex",
      "outputs": [
        {
          "internalType": "uint256",
          "name": "",
          "type": "uint256"
        }
      ],
      "stateMutability": "view",
      "type": "function",
      "constant": true
    },
    {
      "inputs": [
        {
          "internalType": "address",
          "name": "owner",
          "type": "address"
        },
        {
          "internalType": "uint256",
          "name": "index",
          "type": "uint256"
        }
      ],
      "name": "tokenOfOwnerByIndex",
      "outputs": [
        {
          "internalType": "uint256",
          "name": "",
          "type": "uint256"
        }
      ],
      "stateMutability": "view",
      "type": "function",
      "constant": true
    },
    {
      "inputs": [
        {
          "internalType": "uint256",
          "name": "tokenId",
          "type": "uint256"
        }
      ],
      "name": "tokenURI",
      "outputs": [
        {
          "internalType": "string",
          "name": "",
          "type": "string"
        }
      ],
      "stateMutability": "view",
      "type": "function",
      "constant": true
    },
    {
      "inputs": [],
      "name": "totalSupply",
      "outputs": [
        {
          "internalType": "uint256",
          "name": "",
          "type": "uint256"
        }
      ],
      "stateMutability": "view",
      "type": "function",
      "constant": true
    },
    {
      "inputs": [
        {
          "internalType": "address",
          "name": "from",
          "type": "address"
        },
        {
          "internalType": "address",
          "name": "to",
          "type": "address"
        },
        {
          "internalType": "uint256",
          "name": "tokenId",
          "type": "uint256"
        }
      ],
      "name": "transferFrom",
      "outputs": [],
      "stateMutability": "nonpayable",
      "type": "function"
    },
    {
      "inputs": [
        {
          "internalType": "address",
          "name": "owner",
          "type": "address"
        },
        {
          "internalType": "string",
          "name": "_props",
          "type": "string"
        },
        {
          "internalType": "bool",
          "name": "_isMemory",
          "type": "bool"
        }
      ],
      "name": "createStory",
      "outputs": [
        {
          "internalType": "uint256",
          "name": "",
          "type": "uint256"
        }
      ],
      "stateMutability": "payable",
      "type": "function",
      "payable": true
    }
  ],
  "bytecode": "0x60806040523480156200001157600080fd5b506040516200348a3803806200348a833981810160405260408110156200003757600080fd5b81019080805160405193929190846401000000008211156200005857600080fd5b838201915060208201858111156200006f57600080fd5b82518660018202830111640100000000821117156200008d57600080fd5b8083526020830192505050908051906020019080838360005b83811015620000c3578082015181840152602081019050620000a6565b50505050905090810190601f168015620000f15780820380516001836020036101000a031916815260200191505b50604052602001805160405193929190846401000000008211156200011557600080fd5b838201915060208201858111156200012c57600080fd5b82518660018202830111640100000000821117156200014a57600080fd5b8083526020830192505050908051906020019080838360005b838110156200018057808201518184015260208101905062000163565b50505050905090810190601f168015620001ae5780820380516001836020036101000a031916815260200191505b506040525050508181620001cf6301ffc9a760e01b6200025360201b60201c565b8160069080519060200190620001e79291906200035c565b508060079080519060200190620002009291906200035c565b50620002196380ac58cd60e01b6200025360201b60201c565b62000231635b5e139f60e01b6200025360201b60201c565b6200024963780e9d6360e01b6200025360201b60201c565b5050505062000402565b63ffffffff60e01b817bffffffffffffffffffffffffffffffffffffffffffffffffffffffff19161415620002f0576040517f08c379a000000000000000000000000000000000000000000000000000000000815260040180806020018281038252601c8152602001807f4552433136353a20696e76616c696420696e746572666163652069640000000081525060200191505060405180910390fd5b6001600080837bffffffffffffffffffffffffffffffffffffffffffffffffffffffff19167bffffffffffffffffffffffffffffffffffffffffffffffffffffffff1916815260200190815260200160002060006101000a81548160ff02191690831515021790555050565b828054600181600116156101000203166002900490600052602060002090601f016020900481019282601f106200039f57805160ff1916838001178555620003d0565b82800160010185558215620003d0579182015b82811115620003cf578251825591602001919060010190620003b2565b5b509050620003df9190620003e3565b5090565b5b80821115620003fe576000816000905550600101620003e4565b5090565b61307880620004126000396000f3fe6080604052600436106101145760003560e01c80634f6ccce7116100a057806395d89b411161006457806395d89b41146107a5578063a22cb46514610835578063b88d4fde14610892578063c87b56dd146109a4578063e985e9c514610a5857610114565b80634f6ccce7146105225780636352211e146105715780636c0360eb146105d657806370a08231146106665780638a3b6ab8146106cb57610114565b806318160ddd116100e757806318160ddd146102d957806323b872dd146103045780632f745c591461037f578063354e3c7b146103ee57806342842e0e146104a757610114565b806301ffc9a71461011957806306fdde0314610189578063081812fc14610219578063095ea7b31461027e575b600080fd5b34801561012557600080fd5b506101716004803603602081101561013c57600080fd5b8101908080357bffffffffffffffffffffffffffffffffffffffffffffffffffffffff19169060200190929190505050610adf565b60405180821515815260200191505060405180910390f35b34801561019557600080fd5b5061019e610b46565b6040518080602001828103825283818151815260200191508051906020019080838360005b838110156101de5780820151818401526020810190506101c3565b50505050905090810190601f16801561020b5780820380516001836020036101000a031916815260200191505b509250505060405180910390f35b34801561022557600080fd5b506102526004803603602081101561023c57600080fd5b8101908080359060200190929190505050610be8565b604051808273ffffffffffffffffffffffffffffffffffffffff16815260200191505060405180910390f35b34801561028a57600080fd5b506102d7600480360360408110156102a157600080fd5b81019080803573ffffffffffffffffffffffffffffffffffffffff16906020019092919080359060200190929190505050610c83565b005b3480156102e557600080fd5b506102ee610dc7565b6040518082815260200191505060405180910390f35b34801561031057600080fd5b5061037d6004803603606081101561032757600080fd5b81019080803573ffffffffffffffffffffffffffffffffffffffff169060200190929190803573ffffffffffffffffffffffffffffffffffffffff16906020019092919080359060200190929190505050610dd8565b005b34801561038b57600080fd5b506103d8600480360360408110156103a257600080fd5b81019080803573ffffffffffffffffffffffffffffffffffffffff16906020019092919080359060200190929190505050610e4e565b6040518082815260200191505060405180910390f35b6104916004803603606081101561040457600080fd5b81019080803573ffffffffffffffffffffffffffffffffffffffff1690602001909291908035906020019064010000000081111561044157600080fd5b82018360208201111561045357600080fd5b8035906020019184600183028401116401000000008311171561047557600080fd5b9091929391929390803515159060200190929190505050610ea9565b6040518082815260200191505060405180910390f35b3480156104b357600080fd5b50610520600480360360608110156104ca57600080fd5b81019080803573ffffffffffffffffffffffffffffffffffffffff169060200190929190803573ffffffffffffffffffffffffffffffffffffffff169060200190929190803590602001909291905050506110e3565b005b34801561052e57600080fd5b5061055b6004803603602081101561054557600080fd5b8101908080359060200190929190505050611103565b6040518082815260200191505060405180910390f35b34801561057d57600080fd5b506105aa6004803603602081101561059457600080fd5b8101908080359060200190929190505050611126565b604051808273ffffffffffffffffffffffffffffffffffffffff16815260200191505060405180910390f35b3480156105e257600080fd5b506105eb61115d565b6040518080602001828103825283818151815260200191508051906020019080838360005b8381101561062b578082015181840152602081019050610610565b50505050905090810190601f1680156106585780820380516001836020036101000a031916815260200191505b509250505060405180910390f35b34801561067257600080fd5b506106b56004803603602081101561068957600080fd5b81019080803573ffffffffffffffffffffffffffffffffffffffff1690602001909291905050506111ff565b6040518082815260200191505060405180910390f35b3480156106d757600080fd5b50610704600480360360208110156106ee57600080fd5b81019080803590602001909291905050506112d4565b604051808473ffffffffffffffffffffffffffffffffffffffff168152602001806020018315158152602001828103825284818151815260200191508051906020019080838360005b8381101561076857808201518184015260208101905061074d565b50505050905090810190601f1680156107955780820380516001836020036101000a031916815260200191505b5094505050505060405180910390f35b3480156107b157600080fd5b506107ba6113d0565b6040518080602001828103825283818151815260200191508051906020019080838360005b838110156107fa5780820151818401526020810190506107df565b50505050905090810190601f1680156108275780820380516001836020036101000a031916815260200191505b509250505060405180910390f35b34801561084157600080fd5b506108906004803603604081101561085857600080fd5b81019080803573ffffffffffffffffffffffffffffffffffffffff169060200190929190803515159060200190929190505050611472565b005b34801561089e57600080fd5b506109a2600480360360808110156108b557600080fd5b81019080803573ffffffffffffffffffffffffffffffffffffffff169060200190929190803573ffffffffffffffffffffffffffffffffffffffff169060200190929190803590602001909291908035906020019064010000000081111561091c57600080fd5b82018360208201111561092e57600080fd5b8035906020019184600183028401116401000000008311171561095057600080fd5b91908080601f016020809104026020016040519081016040528093929190818152602001838380828437600081840152601f19601f820116905080830192505050505050509192919290505050611628565b005b3480156109b057600080fd5b506109dd600480360360208110156109c757600080fd5b81019080803590602001909291905050506116a0565b6040518080602001828103825283818151815260200191508051906020019080838360005b83811015610a1d578082015181840152602081019050610a02565b50505050905090810190601f168015610a4a5780820380516001836020036101000a031916815260200191505b509250505060405180910390f35b348015610a6457600080fd5b50610ac760048036036040811015610a7b57600080fd5b81019080803573ffffffffffffffffffffffffffffffffffffffff169060200190929190803573ffffffffffffffffffffffffffffffffffffffff169060200190929190505050611971565b60405180821515815260200191505060405180910390f35b6000806000837bffffffffffffffffffffffffffffffffffffffffffffffffffffffff19167bffffffffffffffffffffffffffffffffffffffffffffffffffffffff1916815260200190815260200160002060009054906101000a900460ff169050919050565b606060068054600181600116156101000203166002900480601f016020809104026020016040519081016040528092919081815260200182805460018160011615610100020316600290048015610bde5780601f10610bb357610100808354040283529160200191610bde565b820191906000526020600020905b815481529060010190602001808311610bc157829003601f168201915b5050505050905090565b6000610bf382611a05565b610c48576040517f08c379a000000000000000000000000000000000000000000000000000000000815260040180806020018281038252602c815260200180612f41602c913960400191505060405180910390fd5b6004600083815260200190815260200160002060009054906101000a900473ffffffffffffffffffffffffffffffffffffffff169050919050565b6000610c8e82611126565b90508073ffffffffffffffffffffffffffffffffffffffff168373ffffffffffffffffffffffffffffffffffffffff161415610d15576040517f08c379a0000000000000000000000000000000000000000000000000000000008152600401808060200182810382526021815260200180612ff16021913960400191505060405180910390fd5b8073ffffffffffffffffffffffffffffffffffffffff16610d34611a22565b73ffffffffffffffffffffffffffffffffffffffff161480610d635750610d6281610d5d611a22565b611971565b5b610db8576040517f08c379a0000000000000000000000000000000000000000000000000000000008152600401808060200182810382526038815260200180612e946038913960400191505060405180910390fd5b610dc28383611a2a565b505050565b6000610dd36002611ae3565b905090565b610de9610de3611a22565b82611af8565b610e3e576040517f08c379a00000000000000000000000000000000000000000000000000000000081526004018080602001828103825260318152602001806130126031913960400191505060405180910390fd5b610e49838383611bec565b505050565b6000610ea182600160008673ffffffffffffffffffffffffffffffffffffffff1673ffffffffffffffffffffffffffffffffffffffff168152602001908152602001600020611e2f90919063ffffffff16565b905092915050565b600080610eb6600a611e49565b9050610ec28682611e57565b610f108186868080601f016020809104026020016040519081016040528093929190818152602001838380828437600081840152601f19601f8201169050808301925050505050505061204b565b610f1a600a6120d5565b610f22612cf3565b60405180606001604052808873ffffffffffffffffffffffffffffffffffffffff16815260200187878080601f016020809104026020016040519081016040528093929190818152602001838380828437600081840152601f19601f8201169050808301925050505050505081526020018515158152509050600b81908060018154018082558091505060019003906000526020600020906003020160009091909190915060008201518160000160006101000a81548173ffffffffffffffffffffffffffffffffffffffff021916908373ffffffffffffffffffffffffffffffffffffffff160217905550602082015181600101908051906020019061102a929190612d2c565b5060408201518160020160006101000a81548160ff02191690831515021790555050507f63893b6c0f028c938580629decdb2001bb68356561e9533367cb7b7fb018edc282888888604051808581526020018473ffffffffffffffffffffffffffffffffffffffff168152602001806020018281038252848482818152602001925080828437600081840152601f19601f8201169050808301925050509550505050505060405180910390a18192505050949350505050565b6110fe83838360405180602001604052806000815250611628565b505050565b60008061111a8360026120eb90919063ffffffff16565b50905080915050919050565b600061115682604051806060016040528060298152602001612ef66029913960026121179092919063ffffffff16565b9050919050565b606060098054600181600116156101000203166002900480601f0160208091040260200160405190810160405280929190818152602001828054600181600116156101000203166002900480156111f55780601f106111ca576101008083540402835291602001916111f5565b820191906000526020600020905b8154815290600101906020018083116111d857829003601f168201915b5050505050905090565b60008073ffffffffffffffffffffffffffffffffffffffff168273ffffffffffffffffffffffffffffffffffffffff161415611286576040517f08c379a000000000000000000000000000000000000000000000000000000000815260040180806020018281038252602a815260200180612ecc602a913960400191505060405180910390fd5b6112cd600160008473ffffffffffffffffffffffffffffffffffffffff1673ffffffffffffffffffffffffffffffffffffffff168152602001908152602001600020612136565b9050919050565b600b81815481106112e157fe5b90600052602060002090600302016000915090508060000160009054906101000a900473ffffffffffffffffffffffffffffffffffffffff1690806001018054600181600116156101000203166002900480601f0160208091040260200160405190810160405280929190818152602001828054600181600116156101000203166002900480156113b35780601f10611388576101008083540402835291602001916113b3565b820191906000526020600020905b81548152906001019060200180831161139657829003601f168201915b5050505050908060020160009054906101000a900460ff16905083565b606060078054600181600116156101000203166002900480601f0160208091040260200160405190810160405280929190818152602001828054600181600116156101000203166002900480156114685780601f1061143d57610100808354040283529160200191611468565b820191906000526020600020905b81548152906001019060200180831161144b57829003601f168201915b5050505050905090565b61147a611a22565b73ffffffffffffffffffffffffffffffffffffffff168273ffffffffffffffffffffffffffffffffffffffff16141561151b576040517f08c379a00000000000000000000000000000000000000000000000000000000081526004018080602001828103825260198152602001807f4552433732313a20617070726f766520746f2063616c6c65720000000000000081525060200191505060405180910390fd5b8060056000611528611a22565b73ffffffffffffffffffffffffffffffffffffffff1673ffffffffffffffffffffffffffffffffffffffff16815260200190815260200160002060008473ffffffffffffffffffffffffffffffffffffffff1673ffffffffffffffffffffffffffffffffffffffff16815260200190815260200160002060006101000a81548160ff0219169083151502179055508173ffffffffffffffffffffffffffffffffffffffff166115d5611a22565b73ffffffffffffffffffffffffffffffffffffffff167f17307eab39ab6107e8899845ad3d59bd9653f200f220920489ca2b5937696c318360405180821515815260200191505060405180910390a35050565b611639611633611a22565b83611af8565b61168e576040517f08c379a00000000000000000000000000000000000000000000000000000000081526004018080602001828103825260318152602001806130126031913960400191505060405180910390fd5b61169a8484848461214b565b50505050565b60606116ab82611a05565b611700576040517f08c379a000000000000000000000000000000000000000000000000000000000815260040180806020018281038252602f815260200180612fc2602f913960400191505060405180910390fd5b6060600860008481526020019081526020016000208054600181600116156101000203166002900480601f0160208091040260200160405190810160405280929190818152602001828054600181600116156101000203166002900480156117a95780601f1061177e576101008083540402835291602001916117a9565b820191906000526020600020905b81548152906001019060200180831161178c57829003601f168201915b5050505050905060606117ba61115d565b90506000815114156117d057819250505061196c565b6000825111156118a15780826040516020018083805190602001908083835b6020831061181257805182526020820191506020810190506020830392506117ef565b6001836020036101000a03801982511681845116808217855250505050505090500182805190602001908083835b602083106118635780518252602082019150602081019050602083039250611840565b6001836020036101000a038019825116818451168082178552505050505050905001925050506040516020818303038152906040529250505061196c565b806118ab856121bd565b6040516020018083805190602001908083835b602083106118e157805182526020820191506020810190506020830392506118be565b6001836020036101000a03801982511681845116808217855250505050505090500182805190602001908083835b60208310611932578051825260208201915060208101905060208303925061190f565b6001836020036101000a03801982511681845116808217855250505050505090500192505050604051602081830303815290604052925050505b919050565b6000600560008473ffffffffffffffffffffffffffffffffffffffff1673ffffffffffffffffffffffffffffffffffffffff16815260200190815260200160002060008373ffffffffffffffffffffffffffffffffffffffff1673ffffffffffffffffffffffffffffffffffffffff16815260200190815260200160002060009054906101000a900460ff16905092915050565b6000611a1b82600261230490919063ffffffff16565b9050919050565b600033905090565b816004600083815260200190815260200160002060006101000a81548173ffffffffffffffffffffffffffffffffffffffff021916908373ffffffffffffffffffffffffffffffffffffffff160217905550808273ffffffffffffffffffffffffffffffffffffffff16611a9d83611126565b73ffffffffffffffffffffffffffffffffffffffff167f8c5be1e5ebec7d5bd14f71427d1e84f3dd0314c0f7b2291e5b200ac8c7c3b92560405160405180910390a45050565b6000611af18260000161231e565b9050919050565b6000611b0382611a05565b611b58576040517f08c379a000000000000000000000000000000000000000000000000000000000815260040180806020018281038252602c815260200180612e68602c913960400191505060405180910390fd5b6000611b6383611126565b90508073ffffffffffffffffffffffffffffffffffffffff168473ffffffffffffffffffffffffffffffffffffffff161480611bd257508373ffffffffffffffffffffffffffffffffffffffff16611bba84610be8565b73ffffffffffffffffffffffffffffffffffffffff16145b80611be35750611be28185611971565b5b91505092915050565b8273ffffffffffffffffffffffffffffffffffffffff16611c0c82611126565b73ffffffffffffffffffffffffffffffffffffffff1614611c78576040517f08c379a0000000000000000000000000000000000000000000000000000000008152600401808060200182810382526029815260200180612f996029913960400191505060405180910390fd5b600073ffffffffffffffffffffffffffffffffffffffff168273ffffffffffffffffffffffffffffffffffffffff161415611cfe576040517f08c379a0000000000000000000000000000000000000000000000000000000008152600401808060200182810382526024815260200180612e1e6024913960400191505060405180910390fd5b611d0983838361232f565b611d14600082611a2a565b611d6581600160008673ffffffffffffffffffffffffffffffffffffffff1673ffffffffffffffffffffffffffffffffffffffff16815260200190815260200160002061233490919063ffffffff16565b50611db781600160008573ffffffffffffffffffffffffffffffffffffffff1673ffffffffffffffffffffffffffffffffffffffff16815260200190815260200160002061234e90919063ffffffff16565b50611dce818360026123689092919063ffffffff16565b50808273ffffffffffffffffffffffffffffffffffffffff168473ffffffffffffffffffffffffffffffffffffffff167fddf252ad1be2c89b69c2b068fc378daa952ba7f163c4a11628f55a4df523b3ef60405160405180910390a4505050565b6000611e3e836000018361239d565b60001c905092915050565b600081600001549050919050565b600073ffffffffffffffffffffffffffffffffffffffff168273ffffffffffffffffffffffffffffffffffffffff161415611efa576040517f08c379a00000000000000000000000000000000000000000000000000000000081526004018080602001828103825260208152602001807f4552433732313a206d696e7420746f20746865207a65726f206164647265737381525060200191505060405180910390fd5b611f0381611a05565b15611f76576040517f08c379a000000000000000000000000000000000000000000000000000000000815260040180806020018281038252601c8152602001807f4552433732313a20746f6b656e20616c7265616479206d696e7465640000000081525060200191505060405180910390fd5b611f826000838361232f565b611fd381600160008573ffffffffffffffffffffffffffffffffffffffff1673ffffffffffffffffffffffffffffffffffffffff16815260200190815260200160002061234e90919063ffffffff16565b50611fea818360026123689092919063ffffffff16565b50808273ffffffffffffffffffffffffffffffffffffffff16600073ffffffffffffffffffffffffffffffffffffffff167fddf252ad1be2c89b69c2b068fc378daa952ba7f163c4a11628f55a4df523b3ef60405160405180910390a45050565b61205482611a05565b6120a9576040517f08c379a000000000000000000000000000000000000000000000000000000000815260040180806020018281038252602c815260200180612f6d602c913960400191505060405180910390fd5b806008600084815260200190815260200160002090805190602001906120d0929190612d2c565b505050565b6001816000016000828254019250508190555050565b6000806000806120fe8660000186612420565b915091508160001c8160001c9350935050509250929050565b600061212a846000018460001b846124b9565b60001c90509392505050565b6000612144826000016125af565b9050919050565b612156848484611bec565b612162848484846125c0565b6121b7576040517f08c379a0000000000000000000000000000000000000000000000000000000008152600401808060200182810382526032815260200180612dec6032913960400191505060405180910390fd5b50505050565b60606000821415612205576040518060400160405280600181526020017f300000000000000000000000000000000000000000000000000000000000000081525090506122ff565b600082905060005b6000821461222f578080600101915050600a828161222757fe5b04915061220d565b60608167ffffffffffffffff8111801561224857600080fd5b506040519080825280601f01601f19166020018201604052801561227b5781602001600182028036833780820191505090505b50905060006001830390508593505b600084146122f757600a848161229c57fe5b0660300160f81b828280600190039350815181106122b657fe5b60200101907effffffffffffffffffffffffffffffffffffffffffffffffffffffffffffff1916908160001a905350600a84816122ef57fe5b04935061228a565b819450505050505b919050565b6000612316836000018360001b6127d9565b905092915050565b600081600001805490509050919050565b505050565b6000612346836000018360001b6127fc565b905092915050565b6000612360836000018360001b6128e4565b905092915050565b6000612394846000018460001b8473ffffffffffffffffffffffffffffffffffffffff1660001b612954565b90509392505050565b6000818360000180549050116123fe576040517f08c379a0000000000000000000000000000000000000000000000000000000008152600401808060200182810382526022815260200180612dca6022913960400191505060405180910390fd5b82600001828154811061240d57fe5b9060005260206000200154905092915050565b60008082846000018054905011612482576040517f08c379a0000000000000000000000000000000000000000000000000000000008152600401808060200182810382526022815260200180612f1f6022913960400191505060405180910390fd5b600084600001848154811061249357fe5b906000526020600020906002020190508060000154816001015492509250509250929050565b60008084600101600085815260200190815260200160002054905060008114158390612580576040517f08c379a00000000000000000000000000000000000000000000000000000000081526004018080602001828103825283818151815260200191508051906020019080838360005b8381101561254557808201518184015260208101905061252a565b50505050905090810190601f1680156125725780820380516001836020036101000a031916815260200191505b509250505060405180910390fd5b5084600001600182038154811061259357fe5b9060005260206000209060020201600101549150509392505050565b600081600001805490509050919050565b60006125e18473ffffffffffffffffffffffffffffffffffffffff16612a30565b6125ee57600190506127d1565b606061275863150b7a0260e01b612603611a22565b888787604051602401808573ffffffffffffffffffffffffffffffffffffffff1681526020018473ffffffffffffffffffffffffffffffffffffffff16815260200183815260200180602001828103825283818151815260200191508051906020019080838360005b8381101561268757808201518184015260208101905061266c565b50505050905090810190601f1680156126b45780820380516001836020036101000a031916815260200191505b5095505050505050604051602081830303815290604052907bffffffffffffffffffffffffffffffffffffffffffffffffffffffff19166020820180517bffffffffffffffffffffffffffffffffffffffffffffffffffffffff8381831617835250505050604051806060016040528060328152602001612dec603291398773ffffffffffffffffffffffffffffffffffffffff16612a439092919063ffffffff16565b9050600081806020019051602081101561277157600080fd5b8101908080519060200190929190505050905063150b7a0260e01b7bffffffffffffffffffffffffffffffffffffffffffffffffffffffff1916817bffffffffffffffffffffffffffffffffffffffffffffffffffffffff191614925050505b949350505050565b600080836001016000848152602001908152602001600020541415905092915050565b600080836001016000848152602001908152602001600020549050600081146128d8576000600182039050600060018660000180549050039050600086600001828154811061284757fe5b906000526020600020015490508087600001848154811061286457fe5b906000526020600020018190555060018301876001016000838152602001908152602001600020819055508660000180548061289c57fe5b600190038181906000526020600020016000905590558660010160008781526020019081526020016000206000905560019450505050506128de565b60009150505b92915050565b60006128f08383612a5b565b61294957826000018290806001815401808255809150506001900390600052602060002001600090919091909150558260000180549050836001016000848152602001908152602001600020819055506001905061294e565b600090505b92915050565b60008084600101600085815260200190815260200160002054905060008114156129fb57846000016040518060400160405280868152602001858152509080600181540180825580915050600190039060005260206000209060020201600090919091909150600082015181600001556020820151816001015550508460000180549050856001016000868152602001908152602001600020819055506001915050612a29565b82856000016001830381548110612a0e57fe5b90600052602060002090600202016001018190555060009150505b9392505050565b600080823b905060008111915050919050565b6060612a528484600085612a7e565b90509392505050565b600080836001016000848152602001908152602001600020541415905092915050565b606082471015612ad9576040517f08c379a0000000000000000000000000000000000000000000000000000000008152600401808060200182810382526026815260200180612e426026913960400191505060405180910390fd5b612ae285612a30565b612b54576040517f08c379a000000000000000000000000000000000000000000000000000000000815260040180806020018281038252601d8152602001807f416464726573733a2063616c6c20746f206e6f6e2d636f6e747261637400000081525060200191505060405180910390fd5b600060608673ffffffffffffffffffffffffffffffffffffffff1685876040518082805190602001908083835b60208310612ba45780518252602082019150602081019050602083039250612b81565b6001836020036101000a03801982511681845116808217855250505050505090500191505060006040518083038185875af1925050503d8060008114612c06576040519150601f19603f3d011682016040523d82523d6000602084013e612c0b565b606091505b5091509150612c1b828286612c27565b92505050949350505050565b60608315612c3757829050612cec565b600083511115612c4a5782518084602001fd5b816040517f08c379a00000000000000000000000000000000000000000000000000000000081526004018080602001828103825283818151815260200191508051906020019080838360005b83811015612cb1578082015181840152602081019050612c96565b50505050905090810190601f168015612cde5780820380516001836020036101000a031916815260200191505b509250505060405180910390fd5b9392505050565b6040518060600160405280600073ffffffffffffffffffffffffffffffffffffffff168152602001606081526020016000151581525090565b828054600181600116156101000203166002900490600052602060002090601f016020900481019282601f10612d6d57805160ff1916838001178555612d9b565b82800160010185558215612d9b579182015b82811115612d9a578251825591602001919060010190612d7f565b5b509050612da89190612dac565b5090565b5b80821115612dc5576000816000905550600101612dad565b509056fe456e756d657261626c655365743a20696e646578206f7574206f6620626f756e64734552433732313a207472616e7366657220746f206e6f6e20455243373231526563656976657220696d706c656d656e7465724552433732313a207472616e7366657220746f20746865207a65726f2061646472657373416464726573733a20696e73756666696369656e742062616c616e636520666f722063616c6c4552433732313a206f70657261746f7220717565727920666f72206e6f6e6578697374656e7420746f6b656e4552433732313a20617070726f76652063616c6c6572206973206e6f74206f776e6572206e6f7220617070726f76656420666f7220616c6c4552433732313a2062616c616e636520717565727920666f7220746865207a65726f20616464726573734552433732313a206f776e657220717565727920666f72206e6f6e6578697374656e7420746f6b656e456e756d657261626c654d61703a20696e646578206f7574206f6620626f756e64734552433732313a20617070726f76656420717565727920666f72206e6f6e6578697374656e7420746f6b656e4552433732314d657461646174613a2055524920736574206f66206e6f6e6578697374656e7420746f6b656e4552433732313a207472616e73666572206f6620746f6b656e2074686174206973206e6f74206f776e4552433732314d657461646174613a2055524920717565727920666f72206e6f6e6578697374656e7420746f6b656e4552433732313a20617070726f76616c20746f2063757272656e74206f776e65724552433732313a207472616e736665722063616c6c6572206973206e6f74206f776e6572206e6f7220617070726f766564a264697066735822122001e2414effe748113fc5baec5ee8c8a14c27b57cc0beb0f61c85d939a3c2ffff64736f6c63430007010033",
  "immutableReferences": {},
  "source": "//SPDX-License-Identifier: MIT\npragma solidity ^0.7.1;\n\nimport {\n    RedirectAll,\n    ISuperToken,\n    IConstantFlowAgreementV1,\n    ISuperfluid\n} from \"./RedirectAll.sol\";\nimport {ERC721} from \"@openzeppelin/contracts/token/ERC721/ERC721.sol\";\n\nimport \"@openzeppelin/contracts/token/ERC721/IERC721Metadata.sol\";\nimport \"@openzeppelin/contracts/token/ERC721/ERC721.sol\";\nimport \"@openzeppelin/contracts/utils/Counters.sol\";\nimport \"@openzeppelin/contracts/math/SafeMath.sol\";\n\ncontract StoryFactory is ERC721 {\n    using Counters for Counters.Counter;\n\n    Counters.Counter private tokenIds; // to keep track of the number of NFTs we have minted\n    Story[] public stories;\n\n    constructor(\n        // address owner,\n        string memory _name,\n        string memory _symbol\n        // ISuperfluid host,\n        // IConstantFlowAgreementV1 cfa,\n        // ISuperToken acceptedToken\n     ) ERC721(_name, _symbol) \n    //  RedirectAll(host, cfa, acceptedToken, owner) \n     {}\n\n    struct Story {\n        address creator;\n        string props;\n        bool isMemory;\n    }\n\n    event StoryCreated(uint256 tokenId, address storyCreator, string props);\n\n    // this function is responsible for minting the story NFT\n    // it is the responsibility of the caller to pass the props json schema for ERC721Metadata (_props argument)\n    // _props must include 4 things:\n    // find the schema definition to conform to here: https://eips.ethereum.org/EIPS/eip-721\n    function createStory(\n        address owner,\n        string calldata _props,\n        bool _isMemory\n    ) external payable returns (uint256) {\n        uint256 newItemId = tokenIds.current();\n        _mint(owner, newItemId);\n        _setTokenURI(newItemId, _props);\n        tokenIds.increment();\n\n        Story memory story =\n            Story({creator: owner, props: _props, isMemory: _isMemory});\n\n        stories.push(story);\n\n        emit StoryCreated(newItemId, owner, _props);\n\n        return newItemId;\n    }\n\n    // function _beforeTokenTransfer(\n    //     address, /*from*/\n    //     address to,\n    //     uint256 /*tokenId*/\n    // ) internal override {\n    //     _changeReceiver(to);\n    // }\n}\n",
  "sourcePath": "/Users/migrenaa/Desktop/dev/non-zone/NFT-Hack/non-zone-contracts/contracts/StoryFactory.sol",
  "compiler": {
    "name": "solc",
    "version": "0.7.1+commit.f4a555be.Emscripten.clang"
  },
  "schemaVersion": "3.3.4",
  "updatedAt": "2021-03-21T09:24:53.584Z",
  "networkType": "ethereum",
  "devdoc": {
    "kind": "dev",
    "methods": {
      "approve(address,uint256)": {
        "details": "See {IERC721-approve}."
      },
      "balanceOf(address)": {
        "details": "See {IERC721-balanceOf}."
      },
      "baseURI()": {
        "details": "Returns the base URI set via {_setBaseURI}. This will be automatically added as a prefix in {tokenURI} to each token's URI, or to the token ID if no specific URI is set for that token ID."
      },
      "getApproved(uint256)": {
        "details": "See {IERC721-getApproved}."
      },
      "isApprovedForAll(address,address)": {
        "details": "See {IERC721-isApprovedForAll}."
      },
      "name()": {
        "details": "See {IERC721Metadata-name}."
      },
      "ownerOf(uint256)": {
        "details": "See {IERC721-ownerOf}."
      },
      "safeTransferFrom(address,address,uint256)": {
        "details": "See {IERC721-safeTransferFrom}."
      },
      "safeTransferFrom(address,address,uint256,bytes)": {
        "details": "See {IERC721-safeTransferFrom}."
      },
      "setApprovalForAll(address,bool)": {
        "details": "See {IERC721-setApprovalForAll}."
      },
      "supportsInterface(bytes4)": {
        "details": "See {IERC165-supportsInterface}. Time complexity O(1), guaranteed to always use less than 30 000 gas."
      },
      "symbol()": {
        "details": "See {IERC721Metadata-symbol}."
      },
      "tokenByIndex(uint256)": {
        "details": "See {IERC721Enumerable-tokenByIndex}."
      },
      "tokenOfOwnerByIndex(address,uint256)": {
        "details": "See {IERC721Enumerable-tokenOfOwnerByIndex}."
      },
      "tokenURI(uint256)": {
        "details": "See {IERC721Metadata-tokenURI}."
      },
      "totalSupply()": {
        "details": "See {IERC721Enumerable-totalSupply}."
      },
      "transferFrom(address,address,uint256)": {
        "details": "See {IERC721-transferFrom}."
      }
    },
    "version": 1
  },
  "userdoc": {
    "kind": "user",
    "methods": {},
    "version": 1
  }
}