{
  "contractName": "StoryInteractionFactory",
  "abi": [
    {
      "inputs": [
        {
          "internalType": "string",
          "name": "_name",
          "type": "string"
        },
        {
          "internalType": "string",
          "name": "_symbol",
          "type": "string"
        },
        {
          "internalType": "address",
          "name": "_hostAddress",
          "type": "address"
        },
        {
          "internalType": "address",
          "name": "_cfaAddress",
          "type": "address"
        },
        {
          "internalType": "address",
          "name": "_spaceTokenAddress",
          "type": "address"
        },
        {
          "internalType": "address",
          "name": "_storyFactoryAddress",
          "type": "address"
        }
      ],
      "stateMutability": "nonpayable",
      "type": "constructor"
    },
    {
      "anonymous": false,
      "inputs": [
        {
          "indexed": true,
          "internalType": "address",
          "name": "owner",
          "type": "address"
        },
        {
          "indexed": true,
          "internalType": "address",
          "name": "approved",
          "type": "address"
        },
        {
          "indexed": true,
          "internalType": "uint256",
          "name": "tokenId",
          "type": "uint256"
        }
      ],
      "name": "Approval",
      "type": "event"
    },
    {
      "anonymous": false,
      "inputs": [
        {
          "indexed": true,
          "internalType": "address",
          "name": "owner",
          "type": "address"
        },
        {
          "indexed": true,
          "internalType": "address",
          "name": "operator",
          "type": "address"
        },
        {
          "indexed": false,
          "internalType": "bool",
          "name": "approved",
          "type": "bool"
        }
      ],
      "name": "ApprovalForAll",
      "type": "event"
    },
    {
      "anonymous": false,
      "inputs": [
        {
          "indexed": false,
          "internalType": "uint256",
          "name": "tokenId",
          "type": "uint256"
        },
        {
          "indexed": false,
          "internalType": "address",
          "name": "interactionCreator",
          "type": "address"
        },
        {
          "indexed": false,
          "internalType": "string",
          "name": "props",
          "type": "string"
        },
        {
          "indexed": false,
          "internalType": "uint256",
          "name": "storyTokenId",
          "type": "uint256"
        },
        {
          "indexed": false,
          "internalType": "bool",
          "name": "openStream",
          "type": "bool"
        }
      ],
      "name": "StoryInteractionCreated",
      "type": "event"
    },
    {
      "anonymous": false,
      "inputs": [
        {
          "indexed": true,
          "internalType": "address",
          "name": "from",
          "type": "address"
        },
        {
          "indexed": true,
          "internalType": "address",
          "name": "to",
          "type": "address"
        },
        {
          "indexed": true,
          "internalType": "uint256",
          "name": "tokenId",
          "type": "uint256"
        }
      ],
      "name": "Transfer",
      "type": "event"
    },
    {
      "inputs": [
        {
          "internalType": "contract ISuperToken",
          "name": "",
          "type": "address"
        },
        {
          "internalType": "address",
          "name": "",
          "type": "address"
        },
        {
          "internalType": "bytes32",
          "name": "",
          "type": "bytes32"
        },
        {
          "internalType": "bytes",
          "name": "",
          "type": "bytes"
        },
        {
          "internalType": "bytes",
          "name": "",
          "type": "bytes"
        },
        {
          "internalType": "bytes",
          "name": "",
          "type": "bytes"
        }
      ],
      "name": "afterAgreementCreated",
      "outputs": [
        {
          "internalType": "bytes",
          "name": "",
          "type": "bytes"
        }
      ],
      "stateMutability": "nonpayable",
      "type": "function"
    },
    {
      "inputs": [
        {
          "internalType": "contract ISuperToken",
          "name": "",
          "type": "address"
        },
        {
          "internalType": "address",
          "name": "",
          "type": "address"
        },
        {
          "internalType": "bytes32",
          "name": "",
          "type": "bytes32"
        },
        {
          "internalType": "bytes",
          "name": "",
          "type": "bytes"
        },
        {
          "internalType": "bytes",
          "name": "",
          "type": "bytes"
        },
        {
          "internalType": "bytes",
          "name": "",
          "type": "bytes"
        }
      ],
      "name": "afterAgreementTerminated",
      "outputs": [
        {
          "internalType": "bytes",
          "name": "",
          "type": "bytes"
        }
      ],
      "stateMutability": "nonpayable",
      "type": "function"
    },
    {
      "inputs": [
        {
          "internalType": "contract ISuperToken",
          "name": "",
          "type": "address"
        },
        {
          "internalType": "address",
          "name": "",
          "type": "address"
        },
        {
          "internalType": "bytes32",
          "name": "",
          "type": "bytes32"
        },
        {
          "internalType": "bytes",
          "name": "",
          "type": "bytes"
        },
        {
          "internalType": "bytes",
          "name": "",
          "type": "bytes"
        },
        {
          "internalType": "bytes",
          "name": "",
          "type": "bytes"
        }
      ],
      "name": "afterAgreementUpdated",
      "outputs": [
        {
          "internalType": "bytes",
          "name": "",
          "type": "bytes"
        }
      ],
      "stateMutability": "nonpayable",
      "type": "function"
    },
    {
      "inputs": [
        {
          "internalType": "address",
          "name": "to",
          "type": "address"
        },
        {
          "internalType": "uint256",
          "name": "tokenId",
          "type": "uint256"
        }
      ],
      "name": "approve",
      "outputs": [],
      "stateMutability": "nonpayable",
      "type": "function"
    },
    {
      "inputs": [
        {
          "internalType": "address",
          "name": "owner",
          "type": "address"
        }
      ],
      "name": "balanceOf",
      "outputs": [
        {
          "internalType": "uint256",
          "name": "",
          "type": "uint256"
        }
      ],
      "stateMutability": "view",
      "type": "function",
      "constant": true
    },
    {
      "inputs": [],
      "name": "baseURI",
      "outputs": [
        {
          "internalType": "string",
          "name": "",
          "type": "string"
        }
      ],
      "stateMutability": "view",
      "type": "function",
      "constant": true
    },
    {
      "inputs": [
        {
          "internalType": "contract ISuperToken",
          "name": "",
          "type": "address"
        },
        {
          "internalType": "address",
          "name": "",
          "type": "address"
        },
        {
          "internalType": "bytes32",
          "name": "",
          "type": "bytes32"
        },
        {
          "internalType": "bytes",
          "name": "",
          "type": "bytes"
        },
        {
          "internalType": "bytes",
          "name": "",
          "type": "bytes"
        }
      ],
      "name": "beforeAgreementCreated",
      "outputs": [
        {
          "internalType": "bytes",
          "name": "",
          "type": "bytes"
        }
      ],
      "stateMutability": "view",
      "type": "function",
      "constant": true
    },
    {
      "inputs": [
        {
          "internalType": "contract ISuperToken",
          "name": "",
          "type": "address"
        },
        {
          "internalType": "address",
          "name": "",
          "type": "address"
        },
        {
          "internalType": "bytes32",
          "name": "",
          "type": "bytes32"
        },
        {
          "internalType": "bytes",
          "name": "",
          "type": "bytes"
        },
        {
          "internalType": "bytes",
          "name": "",
          "type": "bytes"
        }
      ],
      "name": "beforeAgreementTerminated",
      "outputs": [
        {
          "internalType": "bytes",
          "name": "",
          "type": "bytes"
        }
      ],
      "stateMutability": "view",
      "type": "function",
      "constant": true
    },
    {
      "inputs": [
        {
          "internalType": "contract ISuperToken",
          "name": "",
          "type": "address"
        },
        {
          "internalType": "address",
          "name": "",
          "type": "address"
        },
        {
          "internalType": "bytes32",
          "name": "",
          "type": "bytes32"
        },
        {
          "internalType": "bytes",
          "name": "",
          "type": "bytes"
        },
        {
          "internalType": "bytes",
          "name": "",
          "type": "bytes"
        }
      ],
      "name": "beforeAgreementUpdated",
      "outputs": [
        {
          "internalType": "bytes",
          "name": "",
          "type": "bytes"
        }
      ],
      "stateMutability": "view",
      "type": "function",
      "constant": true
    },
    {
      "inputs": [
        {
          "internalType": "uint256",
          "name": "tokenId",
          "type": "uint256"
        }
      ],
      "name": "getApproved",
      "outputs": [
        {
          "internalType": "address",
          "name": "",
          "type": "address"
        }
      ],
      "stateMutability": "view",
      "type": "function",
      "constant": true
    },
    {
      "inputs": [
        {
          "internalType": "address",
          "name": "owner",
          "type": "address"
        },
        {
          "internalType": "address",
          "name": "operator",
          "type": "address"
        }
      ],
      "name": "isApprovedForAll",
      "outputs": [
        {
          "internalType": "bool",
          "name": "",
          "type": "bool"
        }
      ],
      "stateMutability": "view",
      "type": "function",
      "constant": true
    },
    {
      "inputs": [],
      "name": "name",
      "outputs": [
        {
          "internalType": "string",
          "name": "",
          "type": "string"
        }
      ],
      "stateMutability": "view",
      "type": "function",
      "constant": true
    },
    {
      "inputs": [
        {
          "internalType": "uint256",
          "name": "tokenId",
          "type": "uint256"
        }
      ],
      "name": "ownerOf",
      "outputs": [
        {
          "internalType": "address",
          "name": "",
          "type": "address"
        }
      ],
      "stateMutability": "view",
      "type": "function",
      "constant": true
    },
    {
      "inputs": [
        {
          "internalType": "address",
          "name": "from",
          "type": "address"
        },
        {
          "internalType": "address",
          "name": "to",
          "type": "address"
        },
        {
          "internalType": "uint256",
          "name": "tokenId",
          "type": "uint256"
        }
      ],
      "name": "safeTransferFrom",
      "outputs": [],
      "stateMutability": "nonpayable",
      "type": "function"
    },
    {
      "inputs": [
        {
          "internalType": "address",
          "name": "from",
          "type": "address"
        },
        {
          "internalType": "address",
          "name": "to",
          "type": "address"
        },
        {
          "internalType": "uint256",
          "name": "tokenId",
          "type": "uint256"
        },
        {
          "internalType": "bytes",
          "name": "_data",
          "type": "bytes"
        }
      ],
      "name": "safeTransferFrom",
      "outputs": [],
      "stateMutability": "nonpayable",
      "type": "function"
    },
    {
      "inputs": [
        {
          "internalType": "address",
          "name": "operator",
          "type": "address"
        },
        {
          "internalType": "bool",
          "name": "approved",
          "type": "bool"
        }
      ],
      "name": "setApprovalForAll",
      "outputs": [],
      "stateMutability": "nonpayable",
      "type": "function"
    },
    {
      "inputs": [
        {
          "internalType": "address",
          "name": "",
          "type": "address"
        }
      ],
      "name": "startedStream",
      "outputs": [
        {
          "internalType": "bool",
          "name": "",
          "type": "bool"
        }
      ],
      "stateMutability": "view",
      "type": "function",
      "constant": true
    },
    {
      "inputs": [
        {
          "internalType": "uint256",
          "name": "",
          "type": "uint256"
        },
        {
          "internalType": "uint256",
          "name": "",
          "type": "uint256"
        }
      ],
      "name": "storyInteractions",
      "outputs": [
        {
          "internalType": "uint256",
          "name": "",
          "type": "uint256"
        }
      ],
      "stateMutability": "view",
      "type": "function",
      "constant": true
    },
    {
      "inputs": [
        {
          "internalType": "bytes4",
          "name": "interfaceId",
          "type": "bytes4"
        }
      ],
      "name": "supportsInterface",
      "outputs": [
        {
          "internalType": "bool",
          "name": "",
          "type": "bool"
        }
      ],
      "stateMutability": "view",
      "type": "function",
      "constant": true
    },
    {
      "inputs": [],
      "name": "symbol",
      "outputs": [
        {
          "internalType": "string",
          "name": "",
          "type": "string"
        }
      ],
      "stateMutability": "view",
      "type": "function",
      "constant": true
    },
    {
      "inputs": [
        {
          "internalType": "uint256",
          "name": "index",
          "type": "uint256"
        }
      ],
      "name": "tokenByIndex",
      "outputs": [
        {
          "internalType": "uint256",
          "name": "",
          "type": "uint256"
        }
      ],
      "stateMutability": "view",
      "type": "function",
      "constant": true
    },
    {
      "inputs": [
        {
          "internalType": "address",
          "name": "owner",
          "type": "address"
        },
        {
          "internalType": "uint256",
          "name": "index",
          "type": "uint256"
        }
      ],
      "name": "tokenOfOwnerByIndex",
      "outputs": [
        {
          "internalType": "uint256",
          "name": "",
          "type": "uint256"
        }
      ],
      "stateMutability": "view",
      "type": "function",
      "constant": true
    },
    {
      "inputs": [
        {
          "internalType": "uint256",
          "name": "tokenId",
          "type": "uint256"
        }
      ],
      "name": "tokenURI",
      "outputs": [
        {
          "internalType": "string",
          "name": "",
          "type": "string"
        }
      ],
      "stateMutability": "view",
      "type": "function",
      "constant": true
    },
    {
      "inputs": [],
      "name": "totalSupply",
      "outputs": [
        {
          "internalType": "uint256",
          "name": "",
          "type": "uint256"
        }
      ],
      "stateMutability": "view",
      "type": "function",
      "constant": true
    },
    {
      "inputs": [
        {
          "internalType": "address",
          "name": "from",
          "type": "address"
        },
        {
          "internalType": "address",
          "name": "to",
          "type": "address"
        },
        {
          "internalType": "uint256",
          "name": "tokenId",
          "type": "uint256"
        }
      ],
      "name": "transferFrom",
      "outputs": [],
      "stateMutability": "nonpayable",
      "type": "function"
    },
    {
      "inputs": [
        {
          "internalType": "string",
          "name": "_props",
          "type": "string"
        },
        {
          "internalType": "uint256",
          "name": "_storyTokenId",
          "type": "uint256"
        }
      ],
      "name": "createStoryInteraction",
      "outputs": [
        {
          "internalType": "uint256",
          "name": "",
          "type": "uint256"
        }
      ],
      "stateMutability": "payable",
      "type": "function",
      "payable": true
    }
  ],
  "bytecode": "0x60806040523480156200001157600080fd5b506040516200485238038062004852833981810160405260c08110156200003757600080fd5b81019080805160405193929190846401000000008211156200005857600080fd5b838201915060208201858111156200006f57600080fd5b82518660018202830111640100000000821117156200008d57600080fd5b8083526020830192505050908051906020019080838360005b83811015620000c3578082015181840152602081019050620000a6565b50505050905090810190601f168015620000f15780820380516001836020036101000a031916815260200191505b50604052602001805160405193929190846401000000008211156200011557600080fd5b838201915060208201858111156200012c57600080fd5b82518660018202830111640100000000821117156200014a57600080fd5b8083526020830192505050908051906020019080838360005b838110156200018057808201518184015260208101905062000163565b50505050905090810190601f168015620001ae5780820380516001836020036101000a031916815260200191505b50604052602001805190602001909291908051906020019092919080519060200190929190805190602001909291905050508585620001fa6301ffc9a760e01b6200044d60201b60201c565b81600690805190602001906200021292919062000556565b5080600790805190602001906200022b92919062000556565b50620002446380ac58cd60e01b6200044d60201b60201c565b6200025c635b5e139f60e01b6200044d60201b60201c565b6200027463780e9d6360e01b6200044d60201b60201c565b505083600a60006101000a81548173ffffffffffffffffffffffffffffffffffffffff021916908373ffffffffffffffffffffffffffffffffffffffff16021790555082600b60006101000a81548173ffffffffffffffffffffffffffffffffffffffff021916908373ffffffffffffffffffffffffffffffffffffffff16021790555081600c60006101000a81548173ffffffffffffffffffffffffffffffffffffffff021916908373ffffffffffffffffffffffffffffffffffffffff16021790555080600e60006101000a81548173ffffffffffffffffffffffffffffffffffffffff021916908373ffffffffffffffffffffffffffffffffffffffff1602179055506000600e60146101000a81548160ff021916908360ff160217905550600064100000000064040000000064010000000060011717179050600a60009054906101000a900473ffffffffffffffffffffffffffffffffffffffff1673ffffffffffffffffffffffffffffffffffffffff1663ad3915c8826040518263ffffffff1660e01b815260040180828152602001915050600060405180830381600087803b1580156200042757600080fd5b505af11580156200043c573d6000803e3d6000fd5b5050505050505050505050620005fc565b63ffffffff60e01b817bffffffffffffffffffffffffffffffffffffffffffffffffffffffff19161415620004ea576040517f08c379a000000000000000000000000000000000000000000000000000000000815260040180806020018281038252601c8152602001807f4552433136353a20696e76616c696420696e746572666163652069640000000081525060200191505060405180910390fd5b6001600080837bffffffffffffffffffffffffffffffffffffffffffffffffffffffff19167bffffffffffffffffffffffffffffffffffffffffffffffffffffffff1916815260200190815260200160002060006101000a81548160ff02191690831515021790555050565b828054600181600116156101000203166002900490600052602060002090601f016020900481019282601f106200059957805160ff1916838001178555620005ca565b82800160010185558215620005ca579182015b82811115620005c9578251825591602001919060010190620005ac565b5b509050620005d99190620005dd565b5090565b5b80821115620005f8576000816000905550600101620005de565b5090565b614246806200060c6000396000f3fe6080604052600436106101815760003560e01c806353c11f99116100d1578063884d1f401161008a578063b88d4fde11610064578063b88d4fde14611183578063c87b56dd14611295578063d86ed3e514611349578063e985e9c51461153c57610181565b8063884d1f4014610ef857806395d89b4114611096578063a22cb4651461112657610181565b806353c11f99146109765780635f9e7d7714610b695780636352211e14610d075780636c0360eb14610d6c57806370a0823114610dfc578063752244fd14610e6157610181565b8063230dbd291161013e5780632f745c59116101185780632f745c591461069f57806330d9c9151461070e57806342842e0e146108ac5780634f6ccce71461092757610181565b8063230dbd29146103d857806323b872dd146105cb5780632af60ac01461064657610181565b806301ffc9a7146101865780630330ee65146101f657806306fdde031461025d578063081812fc146102ed578063095ea7b31461035257806318160ddd146103ad575b600080fd5b34801561019257600080fd5b506101de600480360360208110156101a957600080fd5b8101908080357bffffffffffffffffffffffffffffffffffffffffffffffffffffffff191690602001909291905050506115c3565b60405180821515815260200191505060405180910390f35b34801561020257600080fd5b506102456004803603602081101561021957600080fd5b81019080803573ffffffffffffffffffffffffffffffffffffffff16906020019092919050505061162a565b60405180821515815260200191505060405180910390f35b34801561026957600080fd5b5061027261164a565b6040518080602001828103825283818151815260200191508051906020019080838360005b838110156102b2578082015181840152602081019050610297565b50505050905090810190601f1680156102df5780820380516001836020036101000a031916815260200191505b509250505060405180910390f35b3480156102f957600080fd5b506103266004803603602081101561031057600080fd5b81019080803590602001909291905050506116ec565b604051808273ffffffffffffffffffffffffffffffffffffffff16815260200191505060405180910390f35b34801561035e57600080fd5b506103ab6004803603604081101561037557600080fd5b81019080803573ffffffffffffffffffffffffffffffffffffffff16906020019092919080359060200190929190505050611787565b005b3480156103b957600080fd5b506103c26118cb565b6040518082815260200191505060405180910390f35b3480156103e457600080fd5b50610550600480360360c08110156103fb57600080fd5b81019080803573ffffffffffffffffffffffffffffffffffffffff169060200190929190803573ffffffffffffffffffffffffffffffffffffffff169060200190929190803590602001909291908035906020019064010000000081111561046257600080fd5b82018360208201111561047457600080fd5b8035906020019184600183028401116401000000008311171561049657600080fd5b9091929391929390803590602001906401000000008111156104b757600080fd5b8201836020820111156104c957600080fd5b803590602001918460018302840111640100000000831117156104eb57600080fd5b90919293919293908035906020019064010000000081111561050c57600080fd5b82018360208201111561051e57600080fd5b8035906020019184600183028401116401000000008311171561054057600080fd5b90919293919293905050506118dc565b6040518080602001828103825283818151815260200191508051906020019080838360005b83811015610590578082015181840152602081019050610575565b50505050905090810190601f1680156105bd5780820380516001836020036101000a031916815260200191505b509250505060405180910390f35b3480156105d757600080fd5b50610644600480360360608110156105ee57600080fd5b81019080803573ffffffffffffffffffffffffffffffffffffffff169060200190929190803573ffffffffffffffffffffffffffffffffffffffff1690602001909291908035906020019092919050505061192f565b005b34801561065257600080fd5b506106896004803603604081101561066957600080fd5b8101908080359060200190929190803590602001909291905050506119a5565b6040518082815260200191505060405180910390f35b3480156106ab57600080fd5b506106f8600480360360408110156106c257600080fd5b81019080803573ffffffffffffffffffffffffffffffffffffffff169060200190929190803590602001909291905050506119d3565b6040518082815260200191505060405180910390f35b34801561071a57600080fd5b50610831600480360360a081101561073157600080fd5b81019080803573ffffffffffffffffffffffffffffffffffffffff169060200190929190803573ffffffffffffffffffffffffffffffffffffffff169060200190929190803590602001909291908035906020019064010000000081111561079857600080fd5b8201836020820111156107aa57600080fd5b803590602001918460018302840111640100000000831117156107cc57600080fd5b9091929391929390803590602001906401000000008111156107ed57600080fd5b8201836020820111156107ff57600080fd5b8035906020019184600183028401116401000000008311171561082157600080fd5b9091929391929390505050611a2e565b6040518080602001828103825283818151815260200191508051906020019080838360005b83811015610871578082015181840152602081019050610856565b50505050905090810190601f16801561089e5780820380516001836020036101000a031916815260200191505b509250505060405180910390f35b3480156108b857600080fd5b50610925600480360360608110156108cf57600080fd5b81019080803573ffffffffffffffffffffffffffffffffffffffff169060200190929190803573ffffffffffffffffffffffffffffffffffffffff16906020019092919080359060200190929190505050611a81565b005b34801561093357600080fd5b506109606004803603602081101561094a57600080fd5b8101908080359060200190929190505050611aa1565b6040518082815260200191505060405180910390f35b34801561098257600080fd5b50610aee600480360360c081101561099957600080fd5b81019080803573ffffffffffffffffffffffffffffffffffffffff169060200190929190803573ffffffffffffffffffffffffffffffffffffffff1690602001909291908035906020019092919080359060200190640100000000811115610a0057600080fd5b820183602082011115610a1257600080fd5b80359060200191846001830284011164010000000083111715610a3457600080fd5b909192939192939080359060200190640100000000811115610a5557600080fd5b820183602082011115610a6757600080fd5b80359060200191846001830284011164010000000083111715610a8957600080fd5b909192939192939080359060200190640100000000811115610aaa57600080fd5b820183602082011115610abc57600080fd5b80359060200191846001830284011164010000000083111715610ade57600080fd5b9091929391929390505050611ac4565b6040518080602001828103825283818151815260200191508051906020019080838360005b83811015610b2e578082015181840152602081019050610b13565b50505050905090810190601f168015610b5b5780820380516001836020036101000a031916815260200191505b509250505060405180910390f35b348015610b7557600080fd5b50610c8c600480360360a0811015610b8c57600080fd5b81019080803573ffffffffffffffffffffffffffffffffffffffff169060200190929190803573ffffffffffffffffffffffffffffffffffffffff1690602001909291908035906020019092919080359060200190640100000000811115610bf357600080fd5b820183602082011115610c0557600080fd5b80359060200191846001830284011164010000000083111715610c2757600080fd5b909192939192939080359060200190640100000000811115610c4857600080fd5b820183602082011115610c5a57600080fd5b80359060200191846001830284011164010000000083111715610c7c57600080fd5b9091929391929390505050611b17565b6040518080602001828103825283818151815260200191508051906020019080838360005b83811015610ccc578082015181840152602081019050610cb1565b50505050905090810190601f168015610cf95780820380516001836020036101000a031916815260200191505b509250505060405180910390f35b348015610d1357600080fd5b50610d4060048036036020811015610d2a57600080fd5b8101908080359060200190929190505050611b6a565b604051808273ffffffffffffffffffffffffffffffffffffffff16815260200191505060405180910390f35b348015610d7857600080fd5b50610d81611ba1565b6040518080602001828103825283818151815260200191508051906020019080838360005b83811015610dc1578082015181840152602081019050610da6565b50505050905090810190601f168015610dee5780820380516001836020036101000a031916815260200191505b509250505060405180910390f35b348015610e0857600080fd5b50610e4b60048036036020811015610e1f57600080fd5b81019080803573ffffffffffffffffffffffffffffffffffffffff169060200190929190505050611c43565b6040518082815260200191505060405180910390f35b610ee260048036036040811015610e7757600080fd5b8101908080359060200190640100000000811115610e9457600080fd5b820183602082011115610ea657600080fd5b80359060200191846001830284011164010000000083111715610ec857600080fd5b909192939192939080359060200190929190505050611d18565b6040518082815260200191505060405180910390f35b348015610f0457600080fd5b5061101b600480360360a0811015610f1b57600080fd5b81019080803573ffffffffffffffffffffffffffffffffffffffff169060200190929190803573ffffffffffffffffffffffffffffffffffffffff1690602001909291908035906020019092919080359060200190640100000000811115610f8257600080fd5b820183602082011115610f9457600080fd5b80359060200191846001830284011164010000000083111715610fb657600080fd5b909192939192939080359060200190640100000000811115610fd757600080fd5b820183602082011115610fe957600080fd5b8035906020019184600183028401116401000000008311171561100b57600080fd5b909192939192939050505061202e565b6040518080602001828103825283818151815260200191508051906020019080838360005b8381101561105b578082015181840152602081019050611040565b50505050905090810190601f1680156110885780820380516001836020036101000a031916815260200191505b509250505060405180910390f35b3480156110a257600080fd5b506110ab612081565b6040518080602001828103825283818151815260200191508051906020019080838360005b838110156110eb5780820151818401526020810190506110d0565b50505050905090810190601f1680156111185780820380516001836020036101000a031916815260200191505b509250505060405180910390f35b34801561113257600080fd5b506111816004803603604081101561114957600080fd5b81019080803573ffffffffffffffffffffffffffffffffffffffff169060200190929190803515159060200190929190505050612123565b005b34801561118f57600080fd5b50611293600480360360808110156111a657600080fd5b81019080803573ffffffffffffffffffffffffffffffffffffffff169060200190929190803573ffffffffffffffffffffffffffffffffffffffff169060200190929190803590602001909291908035906020019064010000000081111561120d57600080fd5b82018360208201111561121f57600080fd5b8035906020019184600183028401116401000000008311171561124157600080fd5b91908080601f016020809104026020016040519081016040528093929190818152602001838380828437600081840152601f19601f8201169050808301925050505050505091929192905050506122d9565b005b3480156112a157600080fd5b506112ce600480360360208110156112b857600080fd5b8101908080359060200190929190505050612351565b6040518080602001828103825283818151815260200191508051906020019080838360005b8381101561130e5780820151818401526020810190506112f3565b50505050905090810190601f16801561133b5780820380516001836020036101000a031916815260200191505b509250505060405180910390f35b34801561135557600080fd5b506114c1600480360360c081101561136c57600080fd5b81019080803573ffffffffffffffffffffffffffffffffffffffff169060200190929190803573ffffffffffffffffffffffffffffffffffffffff16906020019092919080359060200190929190803590602001906401000000008111156113d357600080fd5b8201836020820111156113e557600080fd5b8035906020019184600183028401116401000000008311171561140757600080fd5b90919293919293908035906020019064010000000081111561142857600080fd5b82018360208201111561143a57600080fd5b8035906020019184600183028401116401000000008311171561145c57600080fd5b90919293919293908035906020019064010000000081111561147d57600080fd5b82018360208201111561148f57600080fd5b803590602001918460018302840111640100000000831117156114b157600080fd5b9091929391929390505050612622565b6040518080602001828103825283818151815260200191508051906020019080838360005b838110156115015780820151818401526020810190506114e6565b50505050905090810190601f16801561152e5780820380516001836020036101000a031916815260200191505b509250505060405180910390f35b34801561154857600080fd5b506115ab6004803603604081101561155f57600080fd5b81019080803573ffffffffffffffffffffffffffffffffffffffff169060200190929190803573ffffffffffffffffffffffffffffffffffffffff169060200190929190505050612675565b60405180821515815260200191505060405180910390f35b6000806000837bffffffffffffffffffffffffffffffffffffffffffffffffffffffff19167bffffffffffffffffffffffffffffffffffffffffffffffffffffffff1916815260200190815260200160002060009054906101000a900460ff169050919050565b60106020528060005260406000206000915054906101000a900460ff1681565b606060068054600181600116156101000203166002900480601f0160208091040260200160405190810160405280929190818152602001828054600181600116156101000203166002900480156116e25780601f106116b7576101008083540402835291602001916116e2565b820191906000526020600020905b8154815290600101906020018083116116c557829003601f168201915b5050505050905090565b60006116f782612709565b61174c576040517f08c379a000000000000000000000000000000000000000000000000000000000815260040180806020018281038252602c815260200180614024602c913960400191505060405180910390fd5b6004600083815260200190815260200160002060009054906101000a900473ffffffffffffffffffffffffffffffffffffffff169050919050565b600061179282611b6a565b90508073ffffffffffffffffffffffffffffffffffffffff168373ffffffffffffffffffffffffffffffffffffffff161415611819576040517f08c379a00000000000000000000000000000000000000000000000000000000081526004018080602001828103825260218152602001806140d46021913960400191505060405180910390fd5b8073ffffffffffffffffffffffffffffffffffffffff16611838612726565b73ffffffffffffffffffffffffffffffffffffffff161480611867575061186681611861612726565b612675565b5b6118bc576040517f08c379a0000000000000000000000000000000000000000000000000000000008152600401808060200182810382526038815260200180613f776038913960400191505060405180910390fd5b6118c6838361272e565b505050565b60006118d760026127e7565b905090565b60606040517f08c379a000000000000000000000000000000000000000000000000000000000815260040180806020018281038252602e815260200180614183602e913960400191505060405180910390fd5b61194061193a612726565b826127fc565b611995576040517f08c379a00000000000000000000000000000000000000000000000000000000081526004018080602001828103825260318152602001806141526031913960400191505060405180910390fd5b6119a08383836128f0565b505050565b600f60205281600052604060002081815481106119be57fe5b90600052602060002001600091509150505481565b6000611a2682600160008673ffffffffffffffffffffffffffffffffffffffff1673ffffffffffffffffffffffffffffffffffffffff168152602001908152602001600020612b3390919063ffffffff16565b905092915050565b60606040517f08c379a000000000000000000000000000000000000000000000000000000000815260040180806020018281038252602f8152602001806141b1602f913960400191505060405180910390fd5b611a9c838383604051806020016040528060008152506122d9565b505050565b600080611ab8836002612b4d90919063ffffffff16565b50905080915050919050565b60606040517f08c379a00000000000000000000000000000000000000000000000000000000081526004018080602001828103825260318152602001806141e06031913960400191505060405180910390fd5b60606040517f08c379a0000000000000000000000000000000000000000000000000000000008152600401808060200182810382526033815260200180613ece6033913960400191505060405180910390fd5b6000611b9a82604051806060016040528060298152602001613fd9602991396002612b799092919063ffffffff16565b9050919050565b606060098054600181600116156101000203166002900480601f016020809104026020016040519081016040528092919081815260200182805460018160011615610100020316600290048015611c395780601f10611c0e57610100808354040283529160200191611c39565b820191906000526020600020905b815481529060010190602001808311611c1c57829003601f168201915b5050505050905090565b60008073ffffffffffffffffffffffffffffffffffffffff168273ffffffffffffffffffffffffffffffffffffffff161415611cca576040517f08c379a000000000000000000000000000000000000000000000000000000000815260040180806020018281038252602a815260200180613faf602a913960400191505060405180910390fd5b611d11600160008473ffffffffffffffffffffffffffffffffffffffff1673ffffffffffffffffffffffffffffffffffffffff168152602001908152602001600020612b98565b9050919050565b6000803390506000611d2a600d612bad565b9050611d368282612bbb565b611d848187878080601f016020809104026020016040519081016040528093929190818152602001838380828437600081840152601f19601f82011690508083019250505050505050612daf565b611d8e600d612e39565b6000600f60008681526020019081526020016000208290806001815401808255809150506001900390600052602060002001600090919091909150556000600e60009054906101000a900473ffffffffffffffffffffffffffffffffffffffff1673ffffffffffffffffffffffffffffffffffffffff16636352211e876040518263ffffffff1660e01b81526004018082815260200191505060206040518083038186803b158015611e3f57600080fd5b505afa158015611e53573d6000803e3d6000fd5b505050506040513d6020811015611e6957600080fd5b81019080805190602001909291905050509050601060008273ffffffffffffffffffffffffffffffffffffffff1673ffffffffffffffffffffffffffffffffffffffff16815260200190815260200160002060009054906101000a900460ff16158015611ee857506014600e60149054906101000a900460ff1660ff16105b15611f8557611ef681612e4f565b6001601060008373ffffffffffffffffffffffffffffffffffffffff1673ffffffffffffffffffffffffffffffffffffffff16815260200190815260200160002060006101000a81548160ff021916908315150217905550600e601481819054906101000a900460ff168092919060010191906101000a81548160ff021916908360ff16021790555050600191505b7fcdcd6ed6040ef31ef8deeeb8ab6a4354236245fefbef86dae0d7abe9a617881683858a8a8a87604051808781526020018673ffffffffffffffffffffffffffffffffffffffff1681526020018060200184815260200183151581526020018281038252868682818152602001925080828437600081840152601f19601f82011690508083019250505097505050505050505060405180910390a1829450505050509392505050565b60606040517f08c379a000000000000000000000000000000000000000000000000000000000815260040180806020018281038252602f8152602001806140f5602f913960400191505060405180910390fd5b606060078054600181600116156101000203166002900480601f0160208091040260200160405190810160405280929190818152602001828054600181600116156101000203166002900480156121195780601f106120ee57610100808354040283529160200191612119565b820191906000526020600020905b8154815290600101906020018083116120fc57829003601f168201915b5050505050905090565b61212b612726565b73ffffffffffffffffffffffffffffffffffffffff168273ffffffffffffffffffffffffffffffffffffffff1614156121cc576040517f08c379a00000000000000000000000000000000000000000000000000000000081526004018080602001828103825260198152602001807f4552433732313a20617070726f766520746f2063616c6c65720000000000000081525060200191505060405180910390fd5b80600560006121d9612726565b73ffffffffffffffffffffffffffffffffffffffff1673ffffffffffffffffffffffffffffffffffffffff16815260200190815260200160002060008473ffffffffffffffffffffffffffffffffffffffff1673ffffffffffffffffffffffffffffffffffffffff16815260200190815260200160002060006101000a81548160ff0219169083151502179055508173ffffffffffffffffffffffffffffffffffffffff16612286612726565b73ffffffffffffffffffffffffffffffffffffffff167f17307eab39ab6107e8899845ad3d59bd9653f200f220920489ca2b5937696c318360405180821515815260200191505060405180910390a35050565b6122ea6122e4612726565b836127fc565b61233f576040517f08c379a00000000000000000000000000000000000000000000000000000000081526004018080602001828103825260318152602001806141526031913960400191505060405180910390fd5b61234b84848484613234565b50505050565b606061235c82612709565b6123b1576040517f08c379a000000000000000000000000000000000000000000000000000000000815260040180806020018281038252602f8152602001806140a5602f913960400191505060405180910390fd5b6060600860008481526020019081526020016000208054600181600116156101000203166002900480601f01602080910402602001604051908101604052809291908181526020018280546001816001161561010002031660029004801561245a5780601f1061242f5761010080835404028352916020019161245a565b820191906000526020600020905b81548152906001019060200180831161243d57829003601f168201915b50505050509050606061246b611ba1565b905060008151141561248157819250505061261d565b6000825111156125525780826040516020018083805190602001908083835b602083106124c357805182526020820191506020810190506020830392506124a0565b6001836020036101000a03801982511681845116808217855250505050505090500182805190602001908083835b6020831061251457805182526020820191506020810190506020830392506124f1565b6001836020036101000a038019825116818451168082178552505050505050905001925050506040516020818303038152906040529250505061261d565b8061255c856132a6565b6040516020018083805190602001908083835b60208310612592578051825260208201915060208101905060208303925061256f565b6001836020036101000a03801982511681845116808217855250505050505090500182805190602001908083835b602083106125e357805182526020820191506020810190506020830392506125c0565b6001836020036101000a03801982511681845116808217855250505050505090500192505050604051602081830303815290604052925050505b919050565b60606040517f08c379a000000000000000000000000000000000000000000000000000000000815260040180806020018281038252602e815260200180614124602e913960400191505060405180910390fd5b6000600560008473ffffffffffffffffffffffffffffffffffffffff1673ffffffffffffffffffffffffffffffffffffffff16815260200190815260200160002060008373ffffffffffffffffffffffffffffffffffffffff1673ffffffffffffffffffffffffffffffffffffffff16815260200190815260200160002060009054906101000a900460ff16905092915050565b600061271f8260026133ed90919063ffffffff16565b9050919050565b600033905090565b816004600083815260200190815260200160002060006101000a81548173ffffffffffffffffffffffffffffffffffffffff021916908373ffffffffffffffffffffffffffffffffffffffff160217905550808273ffffffffffffffffffffffffffffffffffffffff166127a183611b6a565b73ffffffffffffffffffffffffffffffffffffffff167f8c5be1e5ebec7d5bd14f71427d1e84f3dd0314c0f7b2291e5b200ac8c7c3b92560405160405180910390a45050565b60006127f582600001613407565b9050919050565b600061280782612709565b61285c576040517f08c379a000000000000000000000000000000000000000000000000000000000815260040180806020018281038252602c815260200180613f4b602c913960400191505060405180910390fd5b600061286783611b6a565b90508073ffffffffffffffffffffffffffffffffffffffff168473ffffffffffffffffffffffffffffffffffffffff1614806128d657508373ffffffffffffffffffffffffffffffffffffffff166128be846116ec565b73ffffffffffffffffffffffffffffffffffffffff16145b806128e757506128e68185612675565b5b91505092915050565b8273ffffffffffffffffffffffffffffffffffffffff1661291082611b6a565b73ffffffffffffffffffffffffffffffffffffffff161461297c576040517f08c379a000000000000000000000000000000000000000000000000000000000815260040180806020018281038252602981526020018061407c6029913960400191505060405180910390fd5b600073ffffffffffffffffffffffffffffffffffffffff168273ffffffffffffffffffffffffffffffffffffffff161415612a02576040517f08c379a0000000000000000000000000000000000000000000000000000000008152600401808060200182810382526024815260200180613f016024913960400191505060405180910390fd5b612a0d838383613418565b612a1860008261272e565b612a6981600160008673ffffffffffffffffffffffffffffffffffffffff1673ffffffffffffffffffffffffffffffffffffffff16815260200190815260200160002061341d90919063ffffffff16565b50612abb81600160008573ffffffffffffffffffffffffffffffffffffffff1673ffffffffffffffffffffffffffffffffffffffff16815260200190815260200160002061343790919063ffffffff16565b50612ad2818360026134519092919063ffffffff16565b50808273ffffffffffffffffffffffffffffffffffffffff168473ffffffffffffffffffffffffffffffffffffffff167fddf252ad1be2c89b69c2b068fc378daa952ba7f163c4a11628f55a4df523b3ef60405160405180910390a4505050565b6000612b428360000183613486565b60001c905092915050565b600080600080612b608660000186613509565b915091508160001c8160001c9350935050509250929050565b6000612b8c846000018460001b846135a2565b60001c90509392505050565b6000612ba682600001613698565b9050919050565b600081600001549050919050565b600073ffffffffffffffffffffffffffffffffffffffff168273ffffffffffffffffffffffffffffffffffffffff161415612c5e576040517f08c379a00000000000000000000000000000000000000000000000000000000081526004018080602001828103825260208152602001807f4552433732313a206d696e7420746f20746865207a65726f206164647265737381525060200191505060405180910390fd5b612c6781612709565b15612cda576040517f08c379a000000000000000000000000000000000000000000000000000000000815260040180806020018281038252601c8152602001807f4552433732313a20746f6b656e20616c7265616479206d696e7465640000000081525060200191505060405180910390fd5b612ce660008383613418565b612d3781600160008573ffffffffffffffffffffffffffffffffffffffff1673ffffffffffffffffffffffffffffffffffffffff16815260200190815260200160002061343790919063ffffffff16565b50612d4e818360026134519092919063ffffffff16565b50808273ffffffffffffffffffffffffffffffffffffffff16600073ffffffffffffffffffffffffffffffffffffffff167fddf252ad1be2c89b69c2b068fc378daa952ba7f163c4a11628f55a4df523b3ef60405160405180910390a45050565b612db882612709565b612e0d576040517f08c379a000000000000000000000000000000000000000000000000000000000815260040180806020018281038252602c815260200180614050602c913960400191505060405180910390fd5b80600860008481526020019081526020016000209080519060200190612e34929190613ddc565b505050565b6001816000016000828254019250508190555050565b600a60009054906101000a900473ffffffffffffffffffffffffffffffffffffffff1673ffffffffffffffffffffffffffffffffffffffff166339255d5b600b60009054906101000a900473ffffffffffffffffffffffffffffffffffffffff166362fc305e60e01b600c60009054906101000a900473ffffffffffffffffffffffffffffffffffffffff1685691e7e4171bf4d3a000000600067ffffffffffffffff81118015612eff57600080fd5b506040519080825280601f01601f191660200182016040528015612f325781602001600182028036833780820191505090505b50604051602401808573ffffffffffffffffffffffffffffffffffffffff1681526020018473ffffffffffffffffffffffffffffffffffffffff16815260200183815260200180602001828103825283818151815260200191508051906020019080838360005b83811015612fb4578082015181840152602081019050612f99565b50505050905090810190601f168015612fe15780820380516001836020036101000a031916815260200191505b5095505050505050604051602081830303815290604052907bffffffffffffffffffffffffffffffffffffffffffffffffffffffff19166020820180517bffffffffffffffffffffffffffffffffffffffffffffffffffffffff83818316178352505050506040518363ffffffff1660e01b8152600401808373ffffffffffffffffffffffffffffffffffffffff1681526020018060200180602001838103835284818151815260200191508051906020019080838360005b838110156130b557808201518184015260208101905061309a565b50505050905090810190601f1680156130e25780820380516001836020036101000a031916815260200191505b50838103825260028152602001807f3078000000000000000000000000000000000000000000000000000000000000815250602001945050505050600060405180830381600087803b15801561313757600080fd5b505af115801561314b573d6000803e3d6000fd5b505050506040513d6000823e3d601f19601f82011682018060405250602081101561317557600080fd5b810190808051604051939291908464010000000082111561319557600080fd5b838201915060208201858111156131ab57600080fd5b82518660018202830111640100000000821117156131c857600080fd5b8083526020830192505050908051906020019080838360005b838110156131fc5780820151818401526020810190506131e1565b50505050905090810190601f1680156132295780820380516001836020036101000a031916815260200191505b506040525050505050565b61323f8484846128f0565b61324b848484846136a9565b6132a0576040517f08c379a0000000000000000000000000000000000000000000000000000000008152600401808060200182810382526032815260200180613e9c6032913960400191505060405180910390fd5b50505050565b606060008214156132ee576040518060400160405280600181526020017f300000000000000000000000000000000000000000000000000000000000000081525090506133e8565b600082905060005b60008214613318578080600101915050600a828161331057fe5b0491506132f6565b60608167ffffffffffffffff8111801561333157600080fd5b506040519080825280601f01601f1916602001820160405280156133645781602001600182028036833780820191505090505b50905060006001830390508593505b600084146133e057600a848161338557fe5b0660300160f81b8282806001900393508151811061339f57fe5b60200101907effffffffffffffffffffffffffffffffffffffffffffffffffffffffffffff1916908160001a905350600a84816133d857fe5b049350613373565b819450505050505b919050565b60006133ff836000018360001b6138c2565b905092915050565b600081600001805490509050919050565b505050565b600061342f836000018360001b6138e5565b905092915050565b6000613449836000018360001b6139cd565b905092915050565b600061347d846000018460001b8473ffffffffffffffffffffffffffffffffffffffff1660001b613a3d565b90509392505050565b6000818360000180549050116134e7576040517f08c379a0000000000000000000000000000000000000000000000000000000008152600401808060200182810382526022815260200180613e7a6022913960400191505060405180910390fd5b8260000182815481106134f657fe5b9060005260206000200154905092915050565b6000808284600001805490501161356b576040517f08c379a00000000000000000000000000000000000000000000000000000000081526004018080602001828103825260228152602001806140026022913960400191505060405180910390fd5b600084600001848154811061357c57fe5b906000526020600020906002020190508060000154816001015492509250509250929050565b60008084600101600085815260200190815260200160002054905060008114158390613669576040517f08c379a00000000000000000000000000000000000000000000000000000000081526004018080602001828103825283818151815260200191508051906020019080838360005b8381101561362e578082015181840152602081019050613613565b50505050905090810190601f16801561365b5780820380516001836020036101000a031916815260200191505b509250505060405180910390fd5b5084600001600182038154811061367c57fe5b9060005260206000209060020201600101549150509392505050565b600081600001805490509050919050565b60006136ca8473ffffffffffffffffffffffffffffffffffffffff16613b19565b6136d757600190506138ba565b606061384163150b7a0260e01b6136ec612726565b888787604051602401808573ffffffffffffffffffffffffffffffffffffffff1681526020018473ffffffffffffffffffffffffffffffffffffffff16815260200183815260200180602001828103825283818151815260200191508051906020019080838360005b83811015613770578082015181840152602081019050613755565b50505050905090810190601f16801561379d5780820380516001836020036101000a031916815260200191505b5095505050505050604051602081830303815290604052907bffffffffffffffffffffffffffffffffffffffffffffffffffffffff19166020820180517bffffffffffffffffffffffffffffffffffffffffffffffffffffffff8381831617835250505050604051806060016040528060328152602001613e9c603291398773ffffffffffffffffffffffffffffffffffffffff16613b2c9092919063ffffffff16565b9050600081806020019051602081101561385a57600080fd5b8101908080519060200190929190505050905063150b7a0260e01b7bffffffffffffffffffffffffffffffffffffffffffffffffffffffff1916817bffffffffffffffffffffffffffffffffffffffffffffffffffffffff191614925050505b949350505050565b600080836001016000848152602001908152602001600020541415905092915050565b600080836001016000848152602001908152602001600020549050600081146139c1576000600182039050600060018660000180549050039050600086600001828154811061393057fe5b906000526020600020015490508087600001848154811061394d57fe5b906000526020600020018190555060018301876001016000838152602001908152602001600020819055508660000180548061398557fe5b600190038181906000526020600020016000905590558660010160008781526020019081526020016000206000905560019450505050506139c7565b60009150505b92915050565b60006139d98383613b44565b613a32578260000182908060018154018082558091505060019003906000526020600020016000909190919091505582600001805490508360010160008481526020019081526020016000208190555060019050613a37565b600090505b92915050565b6000808460010160008581526020019081526020016000205490506000811415613ae457846000016040518060400160405280868152602001858152509080600181540180825580915050600190039060005260206000209060020201600090919091909150600082015181600001556020820151816001015550508460000180549050856001016000868152602001908152602001600020819055506001915050613b12565b82856000016001830381548110613af757fe5b90600052602060002090600202016001018190555060009150505b9392505050565b600080823b905060008111915050919050565b6060613b3b8484600085613b67565b90509392505050565b600080836001016000848152602001908152602001600020541415905092915050565b606082471015613bc2576040517f08c379a0000000000000000000000000000000000000000000000000000000008152600401808060200182810382526026815260200180613f256026913960400191505060405180910390fd5b613bcb85613b19565b613c3d576040517f08c379a000000000000000000000000000000000000000000000000000000000815260040180806020018281038252601d8152602001807f416464726573733a2063616c6c20746f206e6f6e2d636f6e747261637400000081525060200191505060405180910390fd5b600060608673ffffffffffffffffffffffffffffffffffffffff1685876040518082805190602001908083835b60208310613c8d5780518252602082019150602081019050602083039250613c6a565b6001836020036101000a03801982511681845116808217855250505050505090500191505060006040518083038185875af1925050503d8060008114613cef576040519150601f19603f3d011682016040523d82523d6000602084013e613cf4565b606091505b5091509150613d04828286613d10565b92505050949350505050565b60608315613d2057829050613dd5565b600083511115613d335782518084602001fd5b816040517f08c379a00000000000000000000000000000000000000000000000000000000081526004018080602001828103825283818151815260200191508051906020019080838360005b83811015613d9a578082015181840152602081019050613d7f565b50505050905090810190601f168015613dc75780820380516001836020036101000a031916815260200191505b509250505060405180910390fd5b9392505050565b828054600181600116156101000203166002900490600052602060002090601f016020900481019282601f10613e1d57805160ff1916838001178555613e4b565b82800160010185558215613e4b579182015b82811115613e4a578251825591602001919060010190613e2f565b5b509050613e589190613e5c565b5090565b5b80821115613e75576000816000905550600101613e5d565b509056fe456e756d657261626c655365743a20696e646578206f7574206f6620626f756e64734552433732313a207472616e7366657220746f206e6f6e20455243373231526563656976657220696d706c656d656e746572556e737570706f727465642063616c6c6261636b202d20204265666f72652041677265656d656e74205465726d696e617465644552433732313a207472616e7366657220746f20746865207a65726f2061646472657373416464726573733a20696e73756666696369656e742062616c616e636520666f722063616c6c4552433732313a206f70657261746f7220717565727920666f72206e6f6e6578697374656e7420746f6b656e4552433732313a20617070726f76652063616c6c6572206973206e6f74206f776e6572206e6f7220617070726f76656420666f7220616c6c4552433732313a2062616c616e636520717565727920666f7220746865207a65726f20616464726573734552433732313a206f776e657220717565727920666f72206e6f6e6578697374656e7420746f6b656e456e756d657261626c654d61703a20696e646578206f7574206f6620626f756e64734552433732313a20617070726f76656420717565727920666f72206e6f6e6578697374656e7420746f6b656e4552433732314d657461646174613a2055524920736574206f66206e6f6e6578697374656e7420746f6b656e4552433732313a207472616e73666572206f6620746f6b656e2074686174206973206e6f74206f776e4552433732314d657461646174613a2055524920717565727920666f72206e6f6e6578697374656e7420746f6b656e4552433732313a20617070726f76616c20746f2063757272656e74206f776e6572556e737570706f727465642063616c6c6261636b202d204265666f72652041677265656d656e742075706461746564556e737570706f727465642063616c6c6261636b202d2041667465722041677265656d656e7420437265617465644552433732313a207472616e736665722063616c6c6572206973206e6f74206f776e6572206e6f7220617070726f766564556e737570706f727465642063616c6c6261636b202d2041667465722041677265656d656e742055706461746564556e737570706f727465642063616c6c6261636b202d204265666f72652041677265656d656e742043726561746564556e737570706f727465642063616c6c6261636b202d2041667465722041677265656d656e74205465726d696e61746564a2646970667358221220bc42779f7149b3629590a0a0ab216eac3379d5a6bc09642f482d6de641e4205e64736f6c63430007010033",
  "immutableReferences": {},
  "source": "pragma solidity ^0.7.0;\n\nimport \"@openzeppelin/contracts/token/ERC721/IERC721Metadata.sol\";\nimport \"@openzeppelin/contracts/token/ERC721/ERC721.sol\";\nimport \"@openzeppelin/contracts/utils/Counters.sol\";\nimport \"@openzeppelin/contracts/math/SafeMath.sol\";\n\nimport {\n    ISuperfluid,\n    ISuperToken,\n    ISuperApp,\n    ISuperAgreement,\n    SuperAppDefinitions\n} from \"@superfluid-finance/ethereum-contracts/contracts/interfaces/superfluid/ISuperfluid.sol\"; //\"@superfluid-finance/ethereum-monorepo/packages/ethereum-contracts/contracts/interfaces/superfluid/ISuperfluid.sol\";\n\nimport {\n    IConstantFlowAgreementV1\n} from \"@superfluid-finance/ethereum-contracts/contracts/interfaces/agreements/IConstantFlowAgreementV1.sol\";\n\nimport {\n    SuperAppBase\n} from \"@superfluid-finance/ethereum-contracts/contracts/apps/SuperAppBase.sol\";\n\nimport \"./StoryFactory.sol\";\n\ncontract StoryInteractionFactory is ERC721, SuperAppBase {\n    using Counters for Counters.Counter;\n    using SafeMath for uint256;\n\n    /*\n     * Superfluid contracts instances used for a\n     * distribution flow\n     */\n    ISuperfluid private host;\n    IConstantFlowAgreementV1 private cfa;\n    ISuperToken private spaceToken;\n\n    // TokenID counter for the NFT\n    Counters.Counter private tokenId; // to keep track of the number of NFTs we have minted\n\n    // The parent NFT contract instance\n    StoryFactory private stories;\n\n    // the count of the active streams.\n    // The distribution shouldn't open more than 20 streams\n    // for the first 20 stories with interactions\n    uint8 activeStreamsCount;\n\n    mapping(uint256 => uint256[]) public storyInteractions;\n    mapping(address => bool) public startedStream;\n\n    /* \n        This event is emited when a story interaction NFT is created\n    */\n    event StoryInteractionCreated(\n        uint256 tokenId,\n        address interactionCreator,\n        string props,\n        uint256 storyTokenId,\n        bool openStream\n    );\n\n    constructor(\n        string memory _name,\n        string memory _symbol,\n        address _hostAddress,\n        address _cfaAddress,\n        address _spaceTokenAddress,\n        address _storyFactoryAddress\n    ) public ERC721(_name, _symbol) {\n        host = ISuperfluid(_hostAddress);\n        cfa = IConstantFlowAgreementV1(_cfaAddress);\n        spaceToken = ISuperToken(_spaceTokenAddress);\n        stories = StoryFactory(_storyFactoryAddress);\n        activeStreamsCount = 0;\n\n        uint256 configWord =\n            SuperAppDefinitions.APP_LEVEL_FINAL |\n                SuperAppDefinitions.BEFORE_AGREEMENT_CREATED_NOOP |\n                SuperAppDefinitions.BEFORE_AGREEMENT_UPDATED_NOOP |\n                SuperAppDefinitions.BEFORE_AGREEMENT_TERMINATED_NOOP;\n\n        host.registerApp(configWord);\n    }\n\n    /* \n        createStoryInteraction mints a new \"child\" of the story owner NFT.\n        If there are no open streams to the story owner and there haven't been open 20 streams yet,\n        the function will opens a new one\n        The story owner will receive 25 HSPACE tokens in 15 days.\n\n    */\n    function createStoryInteraction(\n        string calldata _props,\n        uint256 _storyTokenId\n    ) external payable returns (uint256) {\n        address owner = msg.sender;\n\n        // mint the NFT\n        uint256 newItemId = tokenId.current();\n        _mint(owner, newItemId);\n        _setTokenURI(newItemId, _props);\n        tokenId.increment();\n\n        bool openStream = false;\n\n        // add to the parent story's mapping\n        storyInteractions[_storyTokenId].push(newItemId);\n\n        // get the address of the story owner\n        address ownerOfTheStory = stories.ownerOf(_storyTokenId);\n\n        // check if the story owner has opened stream and if there are still open\n        // slots for opening a stream. => if so, open a new stream.\n        if (!startedStream[ownerOfTheStory] && activeStreamsCount < 20) {\n            _createStream(ownerOfTheStory);\n            startedStream[ownerOfTheStory] = true;\n            activeStreamsCount++;\n            openStream = true;\n        }\n\n        // Emit event with the new NFT data and a value showing whether the stream for this user has been opened.\n        emit StoryInteractionCreated(newItemId, owner, _props, _storyTokenId, openStream);\n\n        return newItemId;\n    }\n\n    /**\n        Creates SuperFluid constant agreement flow.\n        It will be sending the story owner's 25 tokens in the next 15 days.\n     */\n    function _createStream(address _receiver) internal {\n        host.callAgreement(\n            cfa,\n            abi.encodeWithSelector(\n                cfa.createFlow.selector,\n                spaceToken,\n                _receiver,\n                uint256((25 * 1e18) / (15 / 24 / 3600)), // 25 tokens for 15 days\n                new bytes(0)\n            ),\n            \"0x\"\n        );\n    }\n}\n",
  "sourcePath": "/Users/migrenaa/Desktop/dev/non-zone/NFT-Hack/non-zone-contracts/contracts/StoryInteractionFactory.sol",
  "compiler": {
    "name": "solc",
    "version": "0.7.1+commit.f4a555be.Emscripten.clang"
  },
  "schemaVersion": "3.3.4",
  "updatedAt": "2021-03-31T12:52:48.232Z",
  "networkType": "ethereum",
  "devdoc": {
    "kind": "dev",
    "methods": {
      "approve(address,uint256)": {
        "details": "See {IERC721-approve}."
      },
      "balanceOf(address)": {
        "details": "See {IERC721-balanceOf}."
      },
      "baseURI()": {
        "details": "Returns the base URI set via {_setBaseURI}. This will be automatically added as a prefix in {tokenURI} to each token's URI, or to the token ID if no specific URI is set for that token ID."
      },
      "getApproved(uint256)": {
        "details": "See {IERC721-getApproved}."
      },
      "isApprovedForAll(address,address)": {
        "details": "See {IERC721-isApprovedForAll}."
      },
      "name()": {
        "details": "See {IERC721Metadata-name}."
      },
      "ownerOf(uint256)": {
        "details": "See {IERC721-ownerOf}."
      },
      "safeTransferFrom(address,address,uint256)": {
        "details": "See {IERC721-safeTransferFrom}."
      },
      "safeTransferFrom(address,address,uint256,bytes)": {
        "details": "See {IERC721-safeTransferFrom}."
      },
      "setApprovalForAll(address,bool)": {
        "details": "See {IERC721-setApprovalForAll}."
      },
      "supportsInterface(bytes4)": {
        "details": "See {IERC165-supportsInterface}. Time complexity O(1), guaranteed to always use less than 30 000 gas."
      },
      "symbol()": {
        "details": "See {IERC721Metadata-symbol}."
      },
      "tokenByIndex(uint256)": {
        "details": "See {IERC721Enumerable-tokenByIndex}."
      },
      "tokenOfOwnerByIndex(address,uint256)": {
        "details": "See {IERC721Enumerable-tokenOfOwnerByIndex}."
      },
      "tokenURI(uint256)": {
        "details": "See {IERC721Metadata-tokenURI}."
      },
      "totalSupply()": {
        "details": "See {IERC721Enumerable-totalSupply}."
      },
      "transferFrom(address,address,uint256)": {
        "details": "See {IERC721-transferFrom}."
      }
    },
    "version": 1
  },
  "userdoc": {
    "kind": "user",
    "methods": {},
    "version": 1
  }
}